{
	"contracts/DogCoin.sol": {
		"DogCoin": {
			"abi": [
				{
					"inputs": [],
					"stateMutability": "nonpayable",
					"type": "constructor"
				},
				{
					"anonymous": false,
					"inputs": [
						{
							"indexed": true,
							"internalType": "uint256",
							"name": "",
							"type": "uint256"
						}
					],
					"name": "TotalSupplyChanged",
					"type": "event"
				},
				{
					"anonymous": false,
					"inputs": [
						{
							"indexed": true,
							"internalType": "address",
							"name": "to",
							"type": "address"
						},
						{
							"indexed": true,
							"internalType": "uint256",
							"name": "amount",
							"type": "uint256"
						}
					],
					"name": "Transferred",
					"type": "event"
				},
				{
					"inputs": [
						{
							"internalType": "address",
							"name": "wallet",
							"type": "address"
						}
					],
					"name": "getPayments",
					"outputs": [
						{
							"components": [
								{
									"internalType": "address",
									"name": "amount",
									"type": "address"
								},
								{
									"internalType": "uint256",
									"name": "recipient",
									"type": "uint256"
								}
							],
							"internalType": "struct DogCoin.Payment[]",
							"name": "",
							"type": "tuple[]"
						}
					],
					"stateMutability": "view",
					"type": "function"
				},
				{
					"inputs": [],
					"name": "getTotalSupply",
					"outputs": [
						{
							"internalType": "uint256",
							"name": "",
							"type": "uint256"
						}
					],
					"stateMutability": "view",
					"type": "function"
				},
				{
					"inputs": [],
					"name": "increaseThousandSupply",
					"outputs": [],
					"stateMutability": "nonpayable",
					"type": "function"
				},
				{
					"inputs": [
						{
							"internalType": "address",
							"name": "_newOwner",
							"type": "address"
						}
					],
					"name": "setOwner",
					"outputs": [],
					"stateMutability": "nonpayable",
					"type": "function"
				},
				{
					"inputs": [
						{
							"internalType": "address",
							"name": "to",
							"type": "address"
						},
						{
							"internalType": "uint256",
							"name": "amount",
							"type": "uint256"
						}
					],
					"name": "transfer",
					"outputs": [],
					"stateMutability": "nonpayable",
					"type": "function"
				}
			],
			"devdoc": {
				"details": "Store & retrieve value in a variable",
				"kind": "dev",
				"methods": {},
				"title": "Score",
				"version": 1
			},
			"evm": {
				"assembly": "    /* \"contracts/DogCoin.sol\":134:1507  contract DogCoin {... */\n  mstore(0x40, 0x80)\n    /* \"contracts/DogCoin.sol\":578:709  constructor() {... */\n  callvalue\n  dup1\n  iszero\n  tag_1\n  jumpi\n  0x00\n  dup1\n  revert\ntag_1:\n  pop\n    /* \"contracts/DogCoin.sol\":610:620  msg.sender */\n  caller\n    /* \"contracts/DogCoin.sol\":602:607  owner */\n  0x01\n  0x00\n    /* \"contracts/DogCoin.sol\":602:620  owner = msg.sender */\n  0x0100\n  exp\n  dup2\n  sload\n  dup2\n  0xffffffffffffffffffffffffffffffffffffffff\n  mul\n  not\n  and\n  swap1\n  dup4\n  0xffffffffffffffffffffffffffffffffffffffff\n  and\n  mul\n  or\n  swap1\n  sstore\n  pop\n    /* \"contracts/DogCoin.sol\":644:659  2000000 * 10^18 */\n  0x01312d12\n    /* \"contracts/DogCoin.sol\":630:641  totalSupply */\n  0x00\n    /* \"contracts/DogCoin.sol\":630:659  totalSupply = 2000000 * 10^18 */\n  dup2\n  swap1\n  sstore\n  pop\n    /* \"contracts/DogCoin.sol\":687:702  2000000 * 10^18 */\n  0x01312d12\n    /* \"contracts/DogCoin.sol\":669:677  balances */\n  0x02\n    /* \"contracts/DogCoin.sol\":669:684  balances[owner] */\n  0x00\n    /* \"contracts/DogCoin.sol\":678:683  owner */\n  0x01\n  0x00\n  swap1\n  sload\n  swap1\n  0x0100\n  exp\n  swap1\n  div\n  0xffffffffffffffffffffffffffffffffffffffff\n  and\n    /* \"contracts/DogCoin.sol\":669:684  balances[owner] */\n  0xffffffffffffffffffffffffffffffffffffffff\n  and\n  0xffffffffffffffffffffffffffffffffffffffff\n  and\n  dup2\n  mstore\n  0x20\n  add\n  swap1\n  dup2\n  mstore\n  0x20\n  add\n  0x00\n  keccak256\n    /* \"contracts/DogCoin.sol\":669:702  balances[owner] = 2000000 * 10^18 */\n  dup2\n  swap1\n  sstore\n  pop\n    /* \"contracts/DogCoin.sol\":134:1507  contract DogCoin {... */\n  dataSize(sub_0)\n  dup1\n  dataOffset(sub_0)\n  0x00\n  codecopy\n  0x00\n  return\nstop\n\nsub_0: assembly {\n        /* \"contracts/DogCoin.sol\":134:1507  contract DogCoin {... */\n      mstore(0x40, 0x80)\n      callvalue\n      dup1\n      iszero\n      tag_1\n      jumpi\n      0x00\n      dup1\n      revert\n    tag_1:\n      pop\n      jumpi(tag_2, lt(calldatasize, 0x04))\n      shr(0xe0, calldataload(0x00))\n      dup1\n      0x13af4035\n      eq\n      tag_3\n      jumpi\n      dup1\n      0x1d6a1711\n      eq\n      tag_4\n      jumpi\n      dup1\n      0x51382ac7\n      eq\n      tag_5\n      jumpi\n      dup1\n      0xa9059cbb\n      eq\n      tag_6\n      jumpi\n      dup1\n      0xc4e41b22\n      eq\n      tag_7\n      jumpi\n    tag_2:\n      0x00\n      dup1\n      revert\n        /* \"contracts/DogCoin.sol\":1417:1505  function setOwner(address _newOwner) public onlyOwner {... */\n    tag_3:\n      tag_8\n      0x04\n      dup1\n      calldatasize\n      sub\n      dup2\n      add\n      swap1\n      tag_9\n      swap2\n      swap1\n      tag_10\n      jump\t// in\n    tag_9:\n      tag_11\n      jump\t// in\n    tag_8:\n      stop\n        /* \"contracts/DogCoin.sol\":812:928  function getPayments(address wallet) public view returns (Payment[] memory) {... */\n    tag_4:\n      tag_12\n      0x04\n      dup1\n      calldatasize\n      sub\n      dup2\n      add\n      swap1\n      tag_13\n      swap2\n      swap1\n      tag_10\n      jump\t// in\n    tag_13:\n      tag_14\n      jump\t// in\n    tag_12:\n      mload(0x40)\n      tag_15\n      swap2\n      swap1\n      tag_16\n      jump\t// in\n    tag_15:\n      mload(0x40)\n      dup1\n      swap2\n      sub\n      swap1\n      return\n        /* \"contracts/DogCoin.sol\":934:1076  function increaseThousandSupply() external onlyOwner {... */\n    tag_5:\n      tag_17\n      tag_18\n      jump\t// in\n    tag_17:\n      stop\n        /* \"contracts/DogCoin.sol\":1082:1411  function transfer(address to, uint256 amount) external {... */\n    tag_6:\n      tag_19\n      0x04\n      dup1\n      calldatasize\n      sub\n      dup2\n      add\n      swap1\n      tag_20\n      swap2\n      swap1\n      tag_21\n      jump\t// in\n    tag_20:\n      tag_22\n      jump\t// in\n    tag_19:\n      stop\n        /* \"contracts/DogCoin.sol\":715:806  function getTotalSupply() public view returns (uint256) {... */\n    tag_7:\n      tag_23\n      tag_24\n      jump\t// in\n    tag_23:\n      mload(0x40)\n      tag_25\n      swap2\n      swap1\n      tag_26\n      jump\t// in\n    tag_25:\n      mload(0x40)\n      dup1\n      swap2\n      sub\n      swap1\n      return\n        /* \"contracts/DogCoin.sol\":1417:1505  function setOwner(address _newOwner) public onlyOwner {... */\n    tag_11:\n        /* \"contracts/DogCoin.sol\":535:540  owner */\n      0x01\n      0x00\n      swap1\n      sload\n      swap1\n      0x0100\n      exp\n      swap1\n      div\n      0xffffffffffffffffffffffffffffffffffffffff\n      and\n        /* \"contracts/DogCoin.sol\":521:540  msg.sender == owner */\n      0xffffffffffffffffffffffffffffffffffffffff\n      and\n        /* \"contracts/DogCoin.sol\":521:531  msg.sender */\n      caller\n        /* \"contracts/DogCoin.sol\":521:540  msg.sender == owner */\n      0xffffffffffffffffffffffffffffffffffffffff\n      and\n      eq\n        /* \"contracts/DogCoin.sol\":512:554  require (msg.sender == owner, \"not allow\") */\n      tag_28\n      jumpi\n      mload(0x40)\n      0x08c379a000000000000000000000000000000000000000000000000000000000\n      dup2\n      mstore\n      0x04\n      add\n      tag_29\n      swap1\n      tag_30\n      jump\t// in\n    tag_29:\n      mload(0x40)\n      dup1\n      swap2\n      sub\n      swap1\n      revert\n    tag_28:\n        /* \"contracts/DogCoin.sol\":1489:1498  _newOwner */\n      dup1\n        /* \"contracts/DogCoin.sol\":1481:1486  owner */\n      0x01\n      0x00\n        /* \"contracts/DogCoin.sol\":1481:1498  owner = _newOwner */\n      0x0100\n      exp\n      dup2\n      sload\n      dup2\n      0xffffffffffffffffffffffffffffffffffffffff\n      mul\n      not\n      and\n      swap1\n      dup4\n      0xffffffffffffffffffffffffffffffffffffffff\n      and\n      mul\n      or\n      swap1\n      sstore\n      pop\n        /* \"contracts/DogCoin.sol\":1417:1505  function setOwner(address _newOwner) public onlyOwner {... */\n      pop\n      jump\t// out\n        /* \"contracts/DogCoin.sol\":812:928  function getPayments(address wallet) public view returns (Payment[] memory) {... */\n    tag_14:\n        /* \"contracts/DogCoin.sol\":870:886  Payment[] memory */\n      0x60\n        /* \"contracts/DogCoin.sol\":905:913  payments */\n      0x03\n        /* \"contracts/DogCoin.sol\":905:921  payments[wallet] */\n      0x00\n        /* \"contracts/DogCoin.sol\":914:920  wallet */\n      dup4\n        /* \"contracts/DogCoin.sol\":905:921  payments[wallet] */\n      0xffffffffffffffffffffffffffffffffffffffff\n      and\n      0xffffffffffffffffffffffffffffffffffffffff\n      and\n      dup2\n      mstore\n      0x20\n      add\n      swap1\n      dup2\n      mstore\n      0x20\n      add\n      0x00\n      keccak256\n        /* \"contracts/DogCoin.sol\":898:921  return payments[wallet] */\n      dup1\n      sload\n      dup1\n      0x20\n      mul\n      0x20\n      add\n      mload(0x40)\n      swap1\n      dup2\n      add\n      0x40\n      mstore\n      dup1\n      swap3\n      swap2\n      swap1\n      dup2\n      dup2\n      mstore\n      0x20\n      add\n      0x00\n      swap1\n    tag_33:\n      dup3\n      dup3\n      lt\n      iszero\n      tag_34\n      jumpi\n      dup4\n      dup3\n      swap1\n      0x00\n      mstore\n      keccak256(0x00, 0x20)\n      swap1\n      0x02\n      mul\n      add\n      mload(0x40)\n      dup1\n      0x40\n      add\n      0x40\n      mstore\n      swap1\n      dup2\n      0x00\n      dup3\n      add\n      0x00\n      swap1\n      sload\n      swap1\n      0x0100\n      exp\n      swap1\n      div\n      0xffffffffffffffffffffffffffffffffffffffff\n      and\n      0xffffffffffffffffffffffffffffffffffffffff\n      and\n      0xffffffffffffffffffffffffffffffffffffffff\n      and\n      dup2\n      mstore\n      0x20\n      add\n      0x01\n      dup3\n      add\n      sload\n      dup2\n      mstore\n      pop\n      pop\n      dup2\n      mstore\n      0x20\n      add\n      swap1\n      0x01\n      add\n      swap1\n      jump(tag_33)\n    tag_34:\n      pop\n      pop\n      pop\n      pop\n      swap1\n      pop\n        /* \"contracts/DogCoin.sol\":812:928  function getPayments(address wallet) public view returns (Payment[] memory) {... */\n      swap2\n      swap1\n      pop\n      jump\t// out\n        /* \"contracts/DogCoin.sol\":934:1076  function increaseThousandSupply() external onlyOwner {... */\n    tag_18:\n        /* \"contracts/DogCoin.sol\":535:540  owner */\n      0x01\n      0x00\n      swap1\n      sload\n      swap1\n      0x0100\n      exp\n      swap1\n      div\n      0xffffffffffffffffffffffffffffffffffffffff\n      and\n        /* \"contracts/DogCoin.sol\":521:540  msg.sender == owner */\n      0xffffffffffffffffffffffffffffffffffffffff\n      and\n        /* \"contracts/DogCoin.sol\":521:531  msg.sender */\n      caller\n        /* \"contracts/DogCoin.sol\":521:540  msg.sender == owner */\n      0xffffffffffffffffffffffffffffffffffffffff\n      and\n      eq\n        /* \"contracts/DogCoin.sol\":512:554  require (msg.sender == owner, \"not allow\") */\n      tag_37\n      jumpi\n      mload(0x40)\n      0x08c379a000000000000000000000000000000000000000000000000000000000\n      dup2\n      mstore\n      0x04\n      add\n      tag_38\n      swap1\n      tag_30\n      jump\t// in\n    tag_38:\n      mload(0x40)\n      dup1\n      swap2\n      sub\n      swap1\n      revert\n    tag_37:\n        /* \"contracts/DogCoin.sol\":1012:1023  1000* 10^18 */\n      0x2702\n        /* \"contracts/DogCoin.sol\":997:1008  totalSupply */\n      0x00\n      dup1\n        /* \"contracts/DogCoin.sol\":997:1023  totalSupply += 1000* 10^18 */\n      dup3\n      dup3\n      sload\n      tag_40\n      swap2\n      swap1\n      tag_41\n      jump\t// in\n    tag_40:\n      swap3\n      pop\n      pop\n      dup2\n      swap1\n      sstore\n      pop\n        /* \"contracts/DogCoin.sol\":1057:1068  totalSupply */\n      sload(0x00)\n        /* \"contracts/DogCoin.sol\":1038:1069  TotalSupplyChanged(totalSupply) */\n      0xc8b17f75f53401f272e9ee7fa431e81ba33779363238896180425a422420c8f7\n      mload(0x40)\n      mload(0x40)\n      dup1\n      swap2\n      sub\n      swap1\n      log2\n        /* \"contracts/DogCoin.sol\":934:1076  function increaseThousandSupply() external onlyOwner {... */\n      jump\t// out\n        /* \"contracts/DogCoin.sol\":1082:1411  function transfer(address to, uint256 amount) external {... */\n    tag_22:\n        /* \"contracts/DogCoin.sol\":1164:1165  0 */\n      0x00\n        /* \"contracts/DogCoin.sol\":1155:1161  amount */\n      dup2\n        /* \"contracts/DogCoin.sol\":1155:1165  amount > 0 */\n      gt\n        /* \"contracts/DogCoin.sol\":1147:1199  require(amount > 0, \"You cannot transfer 0 amount.\") */\n      tag_43\n      jumpi\n      mload(0x40)\n      0x08c379a000000000000000000000000000000000000000000000000000000000\n      dup2\n      mstore\n      0x04\n      add\n      tag_44\n      swap1\n      tag_45\n      jump\t// in\n    tag_44:\n      mload(0x40)\n      dup1\n      swap2\n      sub\n      swap1\n      revert\n    tag_43:\n        /* \"contracts/DogCoin.sol\":1241:1247  amount */\n      dup1\n        /* \"contracts/DogCoin.sol\":1217:1225  balances */\n      0x02\n        /* \"contracts/DogCoin.sol\":1217:1237  balances[msg.sender] */\n      0x00\n        /* \"contracts/DogCoin.sol\":1226:1236  msg.sender */\n      caller\n        /* \"contracts/DogCoin.sol\":1217:1237  balances[msg.sender] */\n      0xffffffffffffffffffffffffffffffffffffffff\n      and\n      0xffffffffffffffffffffffffffffffffffffffff\n      and\n      dup2\n      mstore\n      0x20\n      add\n      swap1\n      dup2\n      mstore\n      0x20\n      add\n      0x00\n      keccak256\n      sload\n        /* \"contracts/DogCoin.sol\":1217:1247  balances[msg.sender] >= amount */\n      lt\n      iszero\n        /* \"contracts/DogCoin.sol\":1209:1294  require(balances[msg.sender] >= amount, \"You don't have enough balance to transfer.\") */\n      tag_46\n      jumpi\n      mload(0x40)\n      0x08c379a000000000000000000000000000000000000000000000000000000000\n      dup2\n      mstore\n      0x04\n      add\n      tag_47\n      swap1\n      tag_48\n      jump\t// in\n    tag_47:\n      mload(0x40)\n      dup1\n      swap2\n      sub\n      swap1\n      revert\n    tag_46:\n        /* \"contracts/DogCoin.sol\":1328:1334  amount */\n      dup1\n        /* \"contracts/DogCoin.sol\":1304:1312  balances */\n      0x02\n        /* \"contracts/DogCoin.sol\":1304:1324  balances[msg.sender] */\n      0x00\n        /* \"contracts/DogCoin.sol\":1313:1323  msg.sender */\n      caller\n        /* \"contracts/DogCoin.sol\":1304:1324  balances[msg.sender] */\n      0xffffffffffffffffffffffffffffffffffffffff\n      and\n      0xffffffffffffffffffffffffffffffffffffffff\n      and\n      dup2\n      mstore\n      0x20\n      add\n      swap1\n      dup2\n      mstore\n      0x20\n      add\n      0x00\n      keccak256\n      0x00\n        /* \"contracts/DogCoin.sol\":1304:1334  balances[msg.sender] -= amount */\n      dup3\n      dup3\n      sload\n      tag_49\n      swap2\n      swap1\n      tag_50\n      jump\t// in\n    tag_49:\n      swap3\n      pop\n      pop\n      dup2\n      swap1\n      sstore\n      pop\n        /* \"contracts/DogCoin.sol\":1360:1366  amount */\n      dup1\n        /* \"contracts/DogCoin.sol\":1344:1352  balances */\n      0x02\n        /* \"contracts/DogCoin.sol\":1344:1356  balances[to] */\n      0x00\n        /* \"contracts/DogCoin.sol\":1353:1355  to */\n      dup5\n        /* \"contracts/DogCoin.sol\":1344:1356  balances[to] */\n      0xffffffffffffffffffffffffffffffffffffffff\n      and\n      0xffffffffffffffffffffffffffffffffffffffff\n      and\n      dup2\n      mstore\n      0x20\n      add\n      swap1\n      dup2\n      mstore\n      0x20\n      add\n      0x00\n      keccak256\n      0x00\n        /* \"contracts/DogCoin.sol\":1344:1366  balances[to] += amount */\n      dup3\n      dup3\n      sload\n      tag_51\n      swap2\n      swap1\n      tag_41\n      jump\t// in\n    tag_51:\n      swap3\n      pop\n      pop\n      dup2\n      swap1\n      sstore\n      pop\n        /* \"contracts/DogCoin.sol\":1397:1403  amount */\n      dup1\n        /* \"contracts/DogCoin.sol\":1393:1395  to */\n      dup3\n        /* \"contracts/DogCoin.sol\":1381:1404  Transferred(to, amount) */\n      0xffffffffffffffffffffffffffffffffffffffff\n      and\n      0xe6d858f14d755446648a6e0c8ab8b5a0f58ccc7920d4c910b0454e4dcd869af0\n      mload(0x40)\n      mload(0x40)\n      dup1\n      swap2\n      sub\n      swap1\n      log3\n        /* \"contracts/DogCoin.sol\":1082:1411  function transfer(address to, uint256 amount) external {... */\n      pop\n      pop\n      jump\t// out\n        /* \"contracts/DogCoin.sol\":715:806  function getTotalSupply() public view returns (uint256) {... */\n    tag_24:\n        /* \"contracts/DogCoin.sol\":762:769  uint256 */\n      0x00\n        /* \"contracts/DogCoin.sol\":788:799  totalSupply */\n      dup1\n      sload\n        /* \"contracts/DogCoin.sol\":781:799  return totalSupply */\n      swap1\n      pop\n        /* \"contracts/DogCoin.sol\":715:806  function getTotalSupply() public view returns (uint256) {... */\n      swap1\n      jump\t// out\n        /* \"#utility.yul\":88:205   */\n    tag_54:\n        /* \"#utility.yul\":197:198   */\n      0x00\n        /* \"#utility.yul\":194:195   */\n      dup1\n        /* \"#utility.yul\":187:199   */\n      revert\n        /* \"#utility.yul\":334:460   */\n    tag_56:\n        /* \"#utility.yul\":371:378   */\n      0x00\n        /* \"#utility.yul\":411:453   */\n      0xffffffffffffffffffffffffffffffffffffffff\n        /* \"#utility.yul\":404:409   */\n      dup3\n        /* \"#utility.yul\":400:454   */\n      and\n        /* \"#utility.yul\":389:454   */\n      swap1\n      pop\n        /* \"#utility.yul\":334:460   */\n      swap2\n      swap1\n      pop\n      jump\t// out\n        /* \"#utility.yul\":466:562   */\n    tag_57:\n        /* \"#utility.yul\":503:510   */\n      0x00\n        /* \"#utility.yul\":532:556   */\n      tag_87\n        /* \"#utility.yul\":550:555   */\n      dup3\n        /* \"#utility.yul\":532:556   */\n      tag_56\n      jump\t// in\n    tag_87:\n        /* \"#utility.yul\":521:556   */\n      swap1\n      pop\n        /* \"#utility.yul\":466:562   */\n      swap2\n      swap1\n      pop\n      jump\t// out\n        /* \"#utility.yul\":568:690   */\n    tag_58:\n        /* \"#utility.yul\":641:665   */\n      tag_89\n        /* \"#utility.yul\":659:664   */\n      dup2\n        /* \"#utility.yul\":641:665   */\n      tag_57\n      jump\t// in\n    tag_89:\n        /* \"#utility.yul\":634:639   */\n      dup2\n        /* \"#utility.yul\":631:666   */\n      eq\n        /* \"#utility.yul\":621:684   */\n      tag_90\n      jumpi\n        /* \"#utility.yul\":680:681   */\n      0x00\n        /* \"#utility.yul\":677:678   */\n      dup1\n        /* \"#utility.yul\":670:682   */\n      revert\n        /* \"#utility.yul\":621:684   */\n    tag_90:\n        /* \"#utility.yul\":568:690   */\n      pop\n      jump\t// out\n        /* \"#utility.yul\":696:835   */\n    tag_59:\n        /* \"#utility.yul\":742:747   */\n      0x00\n        /* \"#utility.yul\":780:786   */\n      dup2\n        /* \"#utility.yul\":767:787   */\n      calldataload\n        /* \"#utility.yul\":758:787   */\n      swap1\n      pop\n        /* \"#utility.yul\":796:829   */\n      tag_92\n        /* \"#utility.yul\":823:828   */\n      dup2\n        /* \"#utility.yul\":796:829   */\n      tag_58\n      jump\t// in\n    tag_92:\n        /* \"#utility.yul\":696:835   */\n      swap3\n      swap2\n      pop\n      pop\n      jump\t// out\n        /* \"#utility.yul\":841:1170   */\n    tag_10:\n        /* \"#utility.yul\":900:906   */\n      0x00\n        /* \"#utility.yul\":949:951   */\n      0x20\n        /* \"#utility.yul\":937:946   */\n      dup3\n        /* \"#utility.yul\":928:935   */\n      dup5\n        /* \"#utility.yul\":924:947   */\n      sub\n        /* \"#utility.yul\":920:952   */\n      slt\n        /* \"#utility.yul\":917:1036   */\n      iszero\n      tag_94\n      jumpi\n        /* \"#utility.yul\":955:1034   */\n      tag_95\n      tag_54\n      jump\t// in\n    tag_95:\n        /* \"#utility.yul\":917:1036   */\n    tag_94:\n        /* \"#utility.yul\":1075:1076   */\n      0x00\n        /* \"#utility.yul\":1100:1153   */\n      tag_96\n        /* \"#utility.yul\":1145:1152   */\n      dup5\n        /* \"#utility.yul\":1136:1142   */\n      dup3\n        /* \"#utility.yul\":1125:1134   */\n      dup6\n        /* \"#utility.yul\":1121:1143   */\n      add\n        /* \"#utility.yul\":1100:1153   */\n      tag_59\n      jump\t// in\n    tag_96:\n        /* \"#utility.yul\":1090:1153   */\n      swap2\n      pop\n        /* \"#utility.yul\":1046:1163   */\n      pop\n        /* \"#utility.yul\":841:1170   */\n      swap3\n      swap2\n      pop\n      pop\n      jump\t// out\n        /* \"#utility.yul\":1176:1313   */\n    tag_60:\n        /* \"#utility.yul\":1266:1272   */\n      0x00\n        /* \"#utility.yul\":1300:1305   */\n      dup2\n        /* \"#utility.yul\":1294:1306   */\n      mload\n        /* \"#utility.yul\":1284:1306   */\n      swap1\n      pop\n        /* \"#utility.yul\":1176:1313   */\n      swap2\n      swap1\n      pop\n      jump\t// out\n        /* \"#utility.yul\":1319:1526   */\n    tag_61:\n        /* \"#utility.yul\":1441:1452   */\n      0x00\n        /* \"#utility.yul\":1475:1481   */\n      dup3\n        /* \"#utility.yul\":1470:1473   */\n      dup3\n        /* \"#utility.yul\":1463:1482   */\n      mstore\n        /* \"#utility.yul\":1515:1519   */\n      0x20\n        /* \"#utility.yul\":1510:1513   */\n      dup3\n        /* \"#utility.yul\":1506:1520   */\n      add\n        /* \"#utility.yul\":1491:1520   */\n      swap1\n      pop\n        /* \"#utility.yul\":1319:1526   */\n      swap3\n      swap2\n      pop\n      pop\n      jump\t// out\n        /* \"#utility.yul\":1532:1687   */\n    tag_62:\n        /* \"#utility.yul\":1622:1626   */\n      0x00\n        /* \"#utility.yul\":1645:1648   */\n      dup2\n        /* \"#utility.yul\":1637:1648   */\n      swap1\n      pop\n        /* \"#utility.yul\":1675:1679   */\n      0x20\n        /* \"#utility.yul\":1670:1673   */\n      dup3\n        /* \"#utility.yul\":1666:1680   */\n      add\n        /* \"#utility.yul\":1658:1680   */\n      swap1\n      pop\n        /* \"#utility.yul\":1532:1687   */\n      swap2\n      swap1\n      pop\n      jump\t// out\n        /* \"#utility.yul\":1693:1801   */\n    tag_63:\n        /* \"#utility.yul\":1770:1794   */\n      tag_101\n        /* \"#utility.yul\":1788:1793   */\n      dup2\n        /* \"#utility.yul\":1770:1794   */\n      tag_57\n      jump\t// in\n    tag_101:\n        /* \"#utility.yul\":1765:1768   */\n      dup3\n        /* \"#utility.yul\":1758:1795   */\n      mstore\n        /* \"#utility.yul\":1693:1801   */\n      pop\n      pop\n      jump\t// out\n        /* \"#utility.yul\":1807:1884   */\n    tag_64:\n        /* \"#utility.yul\":1844:1851   */\n      0x00\n        /* \"#utility.yul\":1873:1878   */\n      dup2\n        /* \"#utility.yul\":1862:1878   */\n      swap1\n      pop\n        /* \"#utility.yul\":1807:1884   */\n      swap2\n      swap1\n      pop\n      jump\t// out\n        /* \"#utility.yul\":1890:1998   */\n    tag_65:\n        /* \"#utility.yul\":1967:1991   */\n      tag_104\n        /* \"#utility.yul\":1985:1990   */\n      dup2\n        /* \"#utility.yul\":1967:1991   */\n      tag_64\n      jump\t// in\n    tag_104:\n        /* \"#utility.yul\":1962:1965   */\n      dup3\n        /* \"#utility.yul\":1955:1992   */\n      mstore\n        /* \"#utility.yul\":1890:1998   */\n      pop\n      pop\n      jump\t// out\n        /* \"#utility.yul\":2060:2560   */\n    tag_66:\n        /* \"#utility.yul\":2193:2197   */\n      0x40\n        /* \"#utility.yul\":2188:2191   */\n      dup3\n        /* \"#utility.yul\":2184:2198   */\n      add\n        /* \"#utility.yul\":2282:2286   */\n      0x00\n        /* \"#utility.yul\":2275:2280   */\n      dup3\n        /* \"#utility.yul\":2271:2287   */\n      add\n        /* \"#utility.yul\":2265:2288   */\n      mload\n        /* \"#utility.yul\":2301:2364   */\n      tag_106\n        /* \"#utility.yul\":2358:2362   */\n      0x00\n        /* \"#utility.yul\":2353:2356   */\n      dup6\n        /* \"#utility.yul\":2349:2363   */\n      add\n        /* \"#utility.yul\":2335:2347   */\n      dup3\n        /* \"#utility.yul\":2301:2364   */\n      tag_63\n      jump\t// in\n    tag_106:\n        /* \"#utility.yul\":2208:2374   */\n      pop\n        /* \"#utility.yul\":2461:2465   */\n      0x20\n        /* \"#utility.yul\":2454:2459   */\n      dup3\n        /* \"#utility.yul\":2450:2466   */\n      add\n        /* \"#utility.yul\":2444:2467   */\n      mload\n        /* \"#utility.yul\":2480:2543   */\n      tag_107\n        /* \"#utility.yul\":2537:2541   */\n      0x20\n        /* \"#utility.yul\":2532:2535   */\n      dup6\n        /* \"#utility.yul\":2528:2542   */\n      add\n        /* \"#utility.yul\":2514:2526   */\n      dup3\n        /* \"#utility.yul\":2480:2543   */\n      tag_65\n      jump\t// in\n    tag_107:\n        /* \"#utility.yul\":2384:2553   */\n      pop\n        /* \"#utility.yul\":2162:2560   */\n      pop\n        /* \"#utility.yul\":2060:2560   */\n      pop\n      pop\n      jump\t// out\n        /* \"#utility.yul\":2566:2837   */\n    tag_67:\n        /* \"#utility.yul\":2681:2691   */\n      0x00\n        /* \"#utility.yul\":2702:2794   */\n      tag_109\n        /* \"#utility.yul\":2790:2793   */\n      dup4\n        /* \"#utility.yul\":2782:2788   */\n      dup4\n        /* \"#utility.yul\":2702:2794   */\n      tag_66\n      jump\t// in\n    tag_109:\n        /* \"#utility.yul\":2826:2830   */\n      0x40\n        /* \"#utility.yul\":2821:2824   */\n      dup4\n        /* \"#utility.yul\":2817:2831   */\n      add\n        /* \"#utility.yul\":2803:2831   */\n      swap1\n      pop\n        /* \"#utility.yul\":2566:2837   */\n      swap3\n      swap2\n      pop\n      pop\n      jump\t// out\n        /* \"#utility.yul\":2843:2979   */\n    tag_68:\n        /* \"#utility.yul\":2936:2940   */\n      0x00\n        /* \"#utility.yul\":2968:2972   */\n      0x20\n        /* \"#utility.yul\":2963:2966   */\n      dup3\n        /* \"#utility.yul\":2959:2973   */\n      add\n        /* \"#utility.yul\":2951:2973   */\n      swap1\n      pop\n        /* \"#utility.yul\":2843:2979   */\n      swap2\n      swap1\n      pop\n      jump\t// out\n        /* \"#utility.yul\":3045:3961   */\n    tag_69:\n        /* \"#utility.yul\":3210:3213   */\n      0x00\n        /* \"#utility.yul\":3239:3316   */\n      tag_112\n        /* \"#utility.yul\":3310:3315   */\n      dup3\n        /* \"#utility.yul\":3239:3316   */\n      tag_60\n      jump\t// in\n    tag_112:\n        /* \"#utility.yul\":3332:3441   */\n      tag_113\n        /* \"#utility.yul\":3434:3440   */\n      dup2\n        /* \"#utility.yul\":3429:3432   */\n      dup6\n        /* \"#utility.yul\":3332:3441   */\n      tag_61\n      jump\t// in\n    tag_113:\n        /* \"#utility.yul\":3325:3441   */\n      swap4\n      pop\n        /* \"#utility.yul\":3465:3544   */\n      tag_114\n        /* \"#utility.yul\":3538:3543   */\n      dup4\n        /* \"#utility.yul\":3465:3544   */\n      tag_62\n      jump\t// in\n    tag_114:\n        /* \"#utility.yul\":3567:3574   */\n      dup1\n        /* \"#utility.yul\":3598:3599   */\n      0x00\n        /* \"#utility.yul\":3583:3936   */\n    tag_115:\n        /* \"#utility.yul\":3608:3614   */\n      dup4\n        /* \"#utility.yul\":3605:3606   */\n      dup2\n        /* \"#utility.yul\":3602:3615   */\n      lt\n        /* \"#utility.yul\":3583:3936   */\n      iszero\n      tag_117\n      jumpi\n        /* \"#utility.yul\":3684:3690   */\n      dup2\n        /* \"#utility.yul\":3678:3691   */\n      mload\n        /* \"#utility.yul\":3711:3820   */\n      tag_118\n        /* \"#utility.yul\":3816:3819   */\n      dup9\n        /* \"#utility.yul\":3801:3814   */\n      dup3\n        /* \"#utility.yul\":3711:3820   */\n      tag_67\n      jump\t// in\n    tag_118:\n        /* \"#utility.yul\":3704:3820   */\n      swap8\n      pop\n        /* \"#utility.yul\":3843:3926   */\n      tag_119\n        /* \"#utility.yul\":3919:3925   */\n      dup4\n        /* \"#utility.yul\":3843:3926   */\n      tag_68\n      jump\t// in\n    tag_119:\n        /* \"#utility.yul\":3833:3926   */\n      swap3\n      pop\n        /* \"#utility.yul\":3643:3936   */\n      pop\n        /* \"#utility.yul\":3630:3631   */\n      0x01\n        /* \"#utility.yul\":3627:3628   */\n      dup2\n        /* \"#utility.yul\":3623:3632   */\n      add\n        /* \"#utility.yul\":3618:3632   */\n      swap1\n      pop\n        /* \"#utility.yul\":3583:3936   */\n      jump(tag_115)\n    tag_117:\n        /* \"#utility.yul\":3587:3601   */\n      pop\n        /* \"#utility.yul\":3952:3955   */\n      dup6\n        /* \"#utility.yul\":3945:3955   */\n      swap4\n      pop\n        /* \"#utility.yul\":3215:3961   */\n      pop\n      pop\n      pop\n        /* \"#utility.yul\":3045:3961   */\n      swap3\n      swap2\n      pop\n      pop\n      jump\t// out\n        /* \"#utility.yul\":3967:4432   */\n    tag_16:\n        /* \"#utility.yul\":4156:4160   */\n      0x00\n        /* \"#utility.yul\":4194:4196   */\n      0x20\n        /* \"#utility.yul\":4183:4192   */\n      dup3\n        /* \"#utility.yul\":4179:4197   */\n      add\n        /* \"#utility.yul\":4171:4197   */\n      swap1\n      pop\n        /* \"#utility.yul\":4243:4252   */\n      dup2\n        /* \"#utility.yul\":4237:4241   */\n      dup2\n        /* \"#utility.yul\":4233:4253   */\n      sub\n        /* \"#utility.yul\":4229:4230   */\n      0x00\n        /* \"#utility.yul\":4218:4227   */\n      dup4\n        /* \"#utility.yul\":4214:4231   */\n      add\n        /* \"#utility.yul\":4207:4254   */\n      mstore\n        /* \"#utility.yul\":4271:4425   */\n      tag_121\n        /* \"#utility.yul\":4420:4424   */\n      dup2\n        /* \"#utility.yul\":4411:4417   */\n      dup5\n        /* \"#utility.yul\":4271:4425   */\n      tag_69\n      jump\t// in\n    tag_121:\n        /* \"#utility.yul\":4263:4425   */\n      swap1\n      pop\n        /* \"#utility.yul\":3967:4432   */\n      swap3\n      swap2\n      pop\n      pop\n      jump\t// out\n        /* \"#utility.yul\":4438:4560   */\n    tag_70:\n        /* \"#utility.yul\":4511:4535   */\n      tag_123\n        /* \"#utility.yul\":4529:4534   */\n      dup2\n        /* \"#utility.yul\":4511:4535   */\n      tag_64\n      jump\t// in\n    tag_123:\n        /* \"#utility.yul\":4504:4509   */\n      dup2\n        /* \"#utility.yul\":4501:4536   */\n      eq\n        /* \"#utility.yul\":4491:4554   */\n      tag_124\n      jumpi\n        /* \"#utility.yul\":4550:4551   */\n      0x00\n        /* \"#utility.yul\":4547:4548   */\n      dup1\n        /* \"#utility.yul\":4540:4552   */\n      revert\n        /* \"#utility.yul\":4491:4554   */\n    tag_124:\n        /* \"#utility.yul\":4438:4560   */\n      pop\n      jump\t// out\n        /* \"#utility.yul\":4566:4705   */\n    tag_71:\n        /* \"#utility.yul\":4612:4617   */\n      0x00\n        /* \"#utility.yul\":4650:4656   */\n      dup2\n        /* \"#utility.yul\":4637:4657   */\n      calldataload\n        /* \"#utility.yul\":4628:4657   */\n      swap1\n      pop\n        /* \"#utility.yul\":4666:4699   */\n      tag_126\n        /* \"#utility.yul\":4693:4698   */\n      dup2\n        /* \"#utility.yul\":4666:4699   */\n      tag_70\n      jump\t// in\n    tag_126:\n        /* \"#utility.yul\":4566:4705   */\n      swap3\n      swap2\n      pop\n      pop\n      jump\t// out\n        /* \"#utility.yul\":4711:5185   */\n    tag_21:\n        /* \"#utility.yul\":4779:4785   */\n      0x00\n        /* \"#utility.yul\":4787:4793   */\n      dup1\n        /* \"#utility.yul\":4836:4838   */\n      0x40\n        /* \"#utility.yul\":4824:4833   */\n      dup4\n        /* \"#utility.yul\":4815:4822   */\n      dup6\n        /* \"#utility.yul\":4811:4834   */\n      sub\n        /* \"#utility.yul\":4807:4839   */\n      slt\n        /* \"#utility.yul\":4804:4923   */\n      iszero\n      tag_128\n      jumpi\n        /* \"#utility.yul\":4842:4921   */\n      tag_129\n      tag_54\n      jump\t// in\n    tag_129:\n        /* \"#utility.yul\":4804:4923   */\n    tag_128:\n        /* \"#utility.yul\":4962:4963   */\n      0x00\n        /* \"#utility.yul\":4987:5040   */\n      tag_130\n        /* \"#utility.yul\":5032:5039   */\n      dup6\n        /* \"#utility.yul\":5023:5029   */\n      dup3\n        /* \"#utility.yul\":5012:5021   */\n      dup7\n        /* \"#utility.yul\":5008:5030   */\n      add\n        /* \"#utility.yul\":4987:5040   */\n      tag_59\n      jump\t// in\n    tag_130:\n        /* \"#utility.yul\":4977:5040   */\n      swap3\n      pop\n        /* \"#utility.yul\":4933:5050   */\n      pop\n        /* \"#utility.yul\":5089:5091   */\n      0x20\n        /* \"#utility.yul\":5115:5168   */\n      tag_131\n        /* \"#utility.yul\":5160:5167   */\n      dup6\n        /* \"#utility.yul\":5151:5157   */\n      dup3\n        /* \"#utility.yul\":5140:5149   */\n      dup7\n        /* \"#utility.yul\":5136:5158   */\n      add\n        /* \"#utility.yul\":5115:5168   */\n      tag_71\n      jump\t// in\n    tag_131:\n        /* \"#utility.yul\":5105:5168   */\n      swap2\n      pop\n        /* \"#utility.yul\":5060:5178   */\n      pop\n        /* \"#utility.yul\":4711:5185   */\n      swap3\n      pop\n      swap3\n      swap1\n      pop\n      jump\t// out\n        /* \"#utility.yul\":5191:5309   */\n    tag_72:\n        /* \"#utility.yul\":5278:5302   */\n      tag_133\n        /* \"#utility.yul\":5296:5301   */\n      dup2\n        /* \"#utility.yul\":5278:5302   */\n      tag_64\n      jump\t// in\n    tag_133:\n        /* \"#utility.yul\":5273:5276   */\n      dup3\n        /* \"#utility.yul\":5266:5303   */\n      mstore\n        /* \"#utility.yul\":5191:5309   */\n      pop\n      pop\n      jump\t// out\n        /* \"#utility.yul\":5315:5537   */\n    tag_26:\n        /* \"#utility.yul\":5408:5412   */\n      0x00\n        /* \"#utility.yul\":5446:5448   */\n      0x20\n        /* \"#utility.yul\":5435:5444   */\n      dup3\n        /* \"#utility.yul\":5431:5449   */\n      add\n        /* \"#utility.yul\":5423:5449   */\n      swap1\n      pop\n        /* \"#utility.yul\":5459:5530   */\n      tag_135\n        /* \"#utility.yul\":5527:5528   */\n      0x00\n        /* \"#utility.yul\":5516:5525   */\n      dup4\n        /* \"#utility.yul\":5512:5529   */\n      add\n        /* \"#utility.yul\":5503:5509   */\n      dup5\n        /* \"#utility.yul\":5459:5530   */\n      tag_72\n      jump\t// in\n    tag_135:\n        /* \"#utility.yul\":5315:5537   */\n      swap3\n      swap2\n      pop\n      pop\n      jump\t// out\n        /* \"#utility.yul\":5543:5712   */\n    tag_73:\n        /* \"#utility.yul\":5627:5638   */\n      0x00\n        /* \"#utility.yul\":5661:5667   */\n      dup3\n        /* \"#utility.yul\":5656:5659   */\n      dup3\n        /* \"#utility.yul\":5649:5668   */\n      mstore\n        /* \"#utility.yul\":5701:5705   */\n      0x20\n        /* \"#utility.yul\":5696:5699   */\n      dup3\n        /* \"#utility.yul\":5692:5706   */\n      add\n        /* \"#utility.yul\":5677:5706   */\n      swap1\n      pop\n        /* \"#utility.yul\":5543:5712   */\n      swap3\n      swap2\n      pop\n      pop\n      jump\t// out\n        /* \"#utility.yul\":5718:5877   */\n    tag_74:\n        /* \"#utility.yul\":5858:5869   */\n      0x6e6f7420616c6c6f770000000000000000000000000000000000000000000000\n        /* \"#utility.yul\":5854:5855   */\n      0x00\n        /* \"#utility.yul\":5846:5852   */\n      dup3\n        /* \"#utility.yul\":5842:5856   */\n      add\n        /* \"#utility.yul\":5835:5870   */\n      mstore\n        /* \"#utility.yul\":5718:5877   */\n      pop\n      jump\t// out\n        /* \"#utility.yul\":5883:6248   */\n    tag_75:\n        /* \"#utility.yul\":6025:6028   */\n      0x00\n        /* \"#utility.yul\":6046:6112   */\n      tag_139\n        /* \"#utility.yul\":6110:6111   */\n      0x09\n        /* \"#utility.yul\":6105:6108   */\n      dup4\n        /* \"#utility.yul\":6046:6112   */\n      tag_73\n      jump\t// in\n    tag_139:\n        /* \"#utility.yul\":6039:6112   */\n      swap2\n      pop\n        /* \"#utility.yul\":6121:6214   */\n      tag_140\n        /* \"#utility.yul\":6210:6213   */\n      dup3\n        /* \"#utility.yul\":6121:6214   */\n      tag_74\n      jump\t// in\n    tag_140:\n        /* \"#utility.yul\":6239:6241   */\n      0x20\n        /* \"#utility.yul\":6234:6237   */\n      dup3\n        /* \"#utility.yul\":6230:6242   */\n      add\n        /* \"#utility.yul\":6223:6242   */\n      swap1\n      pop\n        /* \"#utility.yul\":5883:6248   */\n      swap2\n      swap1\n      pop\n      jump\t// out\n        /* \"#utility.yul\":6254:6673   */\n    tag_30:\n        /* \"#utility.yul\":6420:6424   */\n      0x00\n        /* \"#utility.yul\":6458:6460   */\n      0x20\n        /* \"#utility.yul\":6447:6456   */\n      dup3\n        /* \"#utility.yul\":6443:6461   */\n      add\n        /* \"#utility.yul\":6435:6461   */\n      swap1\n      pop\n        /* \"#utility.yul\":6507:6516   */\n      dup2\n        /* \"#utility.yul\":6501:6505   */\n      dup2\n        /* \"#utility.yul\":6497:6517   */\n      sub\n        /* \"#utility.yul\":6493:6494   */\n      0x00\n        /* \"#utility.yul\":6482:6491   */\n      dup4\n        /* \"#utility.yul\":6478:6495   */\n      add\n        /* \"#utility.yul\":6471:6518   */\n      mstore\n        /* \"#utility.yul\":6535:6666   */\n      tag_142\n        /* \"#utility.yul\":6661:6665   */\n      dup2\n        /* \"#utility.yul\":6535:6666   */\n      tag_75\n      jump\t// in\n    tag_142:\n        /* \"#utility.yul\":6527:6666   */\n      swap1\n      pop\n        /* \"#utility.yul\":6254:6673   */\n      swap2\n      swap1\n      pop\n      jump\t// out\n        /* \"#utility.yul\":6679:6859   */\n    tag_76:\n        /* \"#utility.yul\":6727:6804   */\n      0x4e487b7100000000000000000000000000000000000000000000000000000000\n        /* \"#utility.yul\":6724:6725   */\n      0x00\n        /* \"#utility.yul\":6717:6805   */\n      mstore\n        /* \"#utility.yul\":6824:6828   */\n      0x11\n        /* \"#utility.yul\":6821:6822   */\n      0x04\n        /* \"#utility.yul\":6814:6829   */\n      mstore\n        /* \"#utility.yul\":6848:6852   */\n      0x24\n        /* \"#utility.yul\":6845:6846   */\n      0x00\n        /* \"#utility.yul\":6838:6853   */\n      revert\n        /* \"#utility.yul\":6865:7056   */\n    tag_41:\n        /* \"#utility.yul\":6905:6908   */\n      0x00\n        /* \"#utility.yul\":6924:6944   */\n      tag_145\n        /* \"#utility.yul\":6942:6943   */\n      dup3\n        /* \"#utility.yul\":6924:6944   */\n      tag_64\n      jump\t// in\n    tag_145:\n        /* \"#utility.yul\":6919:6944   */\n      swap2\n      pop\n        /* \"#utility.yul\":6958:6978   */\n      tag_146\n        /* \"#utility.yul\":6976:6977   */\n      dup4\n        /* \"#utility.yul\":6958:6978   */\n      tag_64\n      jump\t// in\n    tag_146:\n        /* \"#utility.yul\":6953:6978   */\n      swap3\n      pop\n        /* \"#utility.yul\":7001:7002   */\n      dup3\n        /* \"#utility.yul\":6998:6999   */\n      dup3\n        /* \"#utility.yul\":6994:7003   */\n      add\n        /* \"#utility.yul\":6987:7003   */\n      swap1\n      pop\n        /* \"#utility.yul\":7022:7025   */\n      dup1\n        /* \"#utility.yul\":7019:7020   */\n      dup3\n        /* \"#utility.yul\":7016:7026   */\n      gt\n        /* \"#utility.yul\":7013:7049   */\n      iszero\n      tag_147\n      jumpi\n        /* \"#utility.yul\":7029:7047   */\n      tag_148\n      tag_76\n      jump\t// in\n    tag_148:\n        /* \"#utility.yul\":7013:7049   */\n    tag_147:\n        /* \"#utility.yul\":6865:7056   */\n      swap3\n      swap2\n      pop\n      pop\n      jump\t// out\n        /* \"#utility.yul\":7062:7241   */\n    tag_77:\n        /* \"#utility.yul\":7202:7233   */\n      0x596f752063616e6e6f74207472616e73666572203020616d6f756e742e000000\n        /* \"#utility.yul\":7198:7199   */\n      0x00\n        /* \"#utility.yul\":7190:7196   */\n      dup3\n        /* \"#utility.yul\":7186:7200   */\n      add\n        /* \"#utility.yul\":7179:7234   */\n      mstore\n        /* \"#utility.yul\":7062:7241   */\n      pop\n      jump\t// out\n        /* \"#utility.yul\":7247:7613   */\n    tag_78:\n        /* \"#utility.yul\":7389:7392   */\n      0x00\n        /* \"#utility.yul\":7410:7477   */\n      tag_151\n        /* \"#utility.yul\":7474:7476   */\n      0x1d\n        /* \"#utility.yul\":7469:7472   */\n      dup4\n        /* \"#utility.yul\":7410:7477   */\n      tag_73\n      jump\t// in\n    tag_151:\n        /* \"#utility.yul\":7403:7477   */\n      swap2\n      pop\n        /* \"#utility.yul\":7486:7579   */\n      tag_152\n        /* \"#utility.yul\":7575:7578   */\n      dup3\n        /* \"#utility.yul\":7486:7579   */\n      tag_77\n      jump\t// in\n    tag_152:\n        /* \"#utility.yul\":7604:7606   */\n      0x20\n        /* \"#utility.yul\":7599:7602   */\n      dup3\n        /* \"#utility.yul\":7595:7607   */\n      add\n        /* \"#utility.yul\":7588:7607   */\n      swap1\n      pop\n        /* \"#utility.yul\":7247:7613   */\n      swap2\n      swap1\n      pop\n      jump\t// out\n        /* \"#utility.yul\":7619:8038   */\n    tag_45:\n        /* \"#utility.yul\":7785:7789   */\n      0x00\n        /* \"#utility.yul\":7823:7825   */\n      0x20\n        /* \"#utility.yul\":7812:7821   */\n      dup3\n        /* \"#utility.yul\":7808:7826   */\n      add\n        /* \"#utility.yul\":7800:7826   */\n      swap1\n      pop\n        /* \"#utility.yul\":7872:7881   */\n      dup2\n        /* \"#utility.yul\":7866:7870   */\n      dup2\n        /* \"#utility.yul\":7862:7882   */\n      sub\n        /* \"#utility.yul\":7858:7859   */\n      0x00\n        /* \"#utility.yul\":7847:7856   */\n      dup4\n        /* \"#utility.yul\":7843:7860   */\n      add\n        /* \"#utility.yul\":7836:7883   */\n      mstore\n        /* \"#utility.yul\":7900:8031   */\n      tag_154\n        /* \"#utility.yul\":8026:8030   */\n      dup2\n        /* \"#utility.yul\":7900:8031   */\n      tag_78\n      jump\t// in\n    tag_154:\n        /* \"#utility.yul\":7892:8031   */\n      swap1\n      pop\n        /* \"#utility.yul\":7619:8038   */\n      swap2\n      swap1\n      pop\n      jump\t// out\n        /* \"#utility.yul\":8044:8273   */\n    tag_79:\n        /* \"#utility.yul\":8184:8218   */\n      0x596f7520646f6e2774206861766520656e6f7567682062616c616e636520746f\n        /* \"#utility.yul\":8180:8181   */\n      0x00\n        /* \"#utility.yul\":8172:8178   */\n      dup3\n        /* \"#utility.yul\":8168:8182   */\n      add\n        /* \"#utility.yul\":8161:8219   */\n      mstore\n        /* \"#utility.yul\":8253:8265   */\n      0x207472616e736665722e00000000000000000000000000000000000000000000\n        /* \"#utility.yul\":8248:8250   */\n      0x20\n        /* \"#utility.yul\":8240:8246   */\n      dup3\n        /* \"#utility.yul\":8236:8251   */\n      add\n        /* \"#utility.yul\":8229:8266   */\n      mstore\n        /* \"#utility.yul\":8044:8273   */\n      pop\n      jump\t// out\n        /* \"#utility.yul\":8279:8645   */\n    tag_80:\n        /* \"#utility.yul\":8421:8424   */\n      0x00\n        /* \"#utility.yul\":8442:8509   */\n      tag_157\n        /* \"#utility.yul\":8506:8508   */\n      0x2a\n        /* \"#utility.yul\":8501:8504   */\n      dup4\n        /* \"#utility.yul\":8442:8509   */\n      tag_73\n      jump\t// in\n    tag_157:\n        /* \"#utility.yul\":8435:8509   */\n      swap2\n      pop\n        /* \"#utility.yul\":8518:8611   */\n      tag_158\n        /* \"#utility.yul\":8607:8610   */\n      dup3\n        /* \"#utility.yul\":8518:8611   */\n      tag_79\n      jump\t// in\n    tag_158:\n        /* \"#utility.yul\":8636:8638   */\n      0x40\n        /* \"#utility.yul\":8631:8634   */\n      dup3\n        /* \"#utility.yul\":8627:8639   */\n      add\n        /* \"#utility.yul\":8620:8639   */\n      swap1\n      pop\n        /* \"#utility.yul\":8279:8645   */\n      swap2\n      swap1\n      pop\n      jump\t// out\n        /* \"#utility.yul\":8651:9070   */\n    tag_48:\n        /* \"#utility.yul\":8817:8821   */\n      0x00\n        /* \"#utility.yul\":8855:8857   */\n      0x20\n        /* \"#utility.yul\":8844:8853   */\n      dup3\n        /* \"#utility.yul\":8840:8858   */\n      add\n        /* \"#utility.yul\":8832:8858   */\n      swap1\n      pop\n        /* \"#utility.yul\":8904:8913   */\n      dup2\n        /* \"#utility.yul\":8898:8902   */\n      dup2\n        /* \"#utility.yul\":8894:8914   */\n      sub\n        /* \"#utility.yul\":8890:8891   */\n      0x00\n        /* \"#utility.yul\":8879:8888   */\n      dup4\n        /* \"#utility.yul\":8875:8892   */\n      add\n        /* \"#utility.yul\":8868:8915   */\n      mstore\n        /* \"#utility.yul\":8932:9063   */\n      tag_160\n        /* \"#utility.yul\":9058:9062   */\n      dup2\n        /* \"#utility.yul\":8932:9063   */\n      tag_80\n      jump\t// in\n    tag_160:\n        /* \"#utility.yul\":8924:9063   */\n      swap1\n      pop\n        /* \"#utility.yul\":8651:9070   */\n      swap2\n      swap1\n      pop\n      jump\t// out\n        /* \"#utility.yul\":9076:9270   */\n    tag_50:\n        /* \"#utility.yul\":9116:9120   */\n      0x00\n        /* \"#utility.yul\":9136:9156   */\n      tag_162\n        /* \"#utility.yul\":9154:9155   */\n      dup3\n        /* \"#utility.yul\":9136:9156   */\n      tag_64\n      jump\t// in\n    tag_162:\n        /* \"#utility.yul\":9131:9156   */\n      swap2\n      pop\n        /* \"#utility.yul\":9170:9190   */\n      tag_163\n        /* \"#utility.yul\":9188:9189   */\n      dup4\n        /* \"#utility.yul\":9170:9190   */\n      tag_64\n      jump\t// in\n    tag_163:\n        /* \"#utility.yul\":9165:9190   */\n      swap3\n      pop\n        /* \"#utility.yul\":9214:9215   */\n      dup3\n        /* \"#utility.yul\":9211:9212   */\n      dup3\n        /* \"#utility.yul\":9207:9216   */\n      sub\n        /* \"#utility.yul\":9199:9216   */\n      swap1\n      pop\n        /* \"#utility.yul\":9238:9239   */\n      dup2\n        /* \"#utility.yul\":9232:9236   */\n      dup2\n        /* \"#utility.yul\":9229:9240   */\n      gt\n        /* \"#utility.yul\":9226:9263   */\n      iszero\n      tag_164\n      jumpi\n        /* \"#utility.yul\":9243:9261   */\n      tag_165\n      tag_76\n      jump\t// in\n    tag_165:\n        /* \"#utility.yul\":9226:9263   */\n    tag_164:\n        /* \"#utility.yul\":9076:9270   */\n      swap3\n      swap2\n      pop\n      pop\n      jump\t// out\n\n    auxdata: 0xa264697066735822122099df0887096988cdccbe9ccfd18693c8cdeb00a7ca1ce96d986b69e0037e332964736f6c63430008130033\n}\n",
				"bytecode": {
					"linkReferences": {},
					"object": "608060405234801561001057600080fd5b5033600160006101000a81548173ffffffffffffffffffffffffffffffffffffffff021916908373ffffffffffffffffffffffffffffffffffffffff1602179055506301312d126000819055506301312d1260026000600160009054906101000a900473ffffffffffffffffffffffffffffffffffffffff1673ffffffffffffffffffffffffffffffffffffffff1673ffffffffffffffffffffffffffffffffffffffff168152602001908152602001600020819055506109f1806100d66000396000f3fe608060405234801561001057600080fd5b50600436106100575760003560e01c806313af40351461005c5780631d6a17111461007857806351382ac7146100a8578063a9059cbb146100b2578063c4e41b22146100ce575b600080fd5b610076600480360381019061007191906105be565b6100ec565b005b610092600480360381019061008d91906105be565b6101c0565b60405161009f91906106f1565b60405180910390f35b6100b06102be565b005b6100cc60048036038101906100c7919061073f565b610399565b005b6100d6610552565b6040516100e3919061078e565b60405180910390f35b600160009054906101000a900473ffffffffffffffffffffffffffffffffffffffff1673ffffffffffffffffffffffffffffffffffffffff163373ffffffffffffffffffffffffffffffffffffffff161461017c576040517f08c379a000000000000000000000000000000000000000000000000000000000815260040161017390610806565b60405180910390fd5b80600160006101000a81548173ffffffffffffffffffffffffffffffffffffffff021916908373ffffffffffffffffffffffffffffffffffffffff16021790555050565b6060600360008373ffffffffffffffffffffffffffffffffffffffff1673ffffffffffffffffffffffffffffffffffffffff168152602001908152602001600020805480602002602001604051908101604052809291908181526020016000905b828210156102b357838290600052602060002090600202016040518060400160405290816000820160009054906101000a900473ffffffffffffffffffffffffffffffffffffffff1673ffffffffffffffffffffffffffffffffffffffff1673ffffffffffffffffffffffffffffffffffffffff16815260200160018201548152505081526020019060010190610221565b505050509050919050565b600160009054906101000a900473ffffffffffffffffffffffffffffffffffffffff1673ffffffffffffffffffffffffffffffffffffffff163373ffffffffffffffffffffffffffffffffffffffff161461034e576040517f08c379a000000000000000000000000000000000000000000000000000000000815260040161034590610806565b60405180910390fd5b6127026000808282546103619190610855565b925050819055506000547fc8b17f75f53401f272e9ee7fa431e81ba33779363238896180425a422420c8f760405160405180910390a2565b600081116103dc576040517f08c379a00000000000000000000000000000000000000000000000000000000081526004016103d3906108d5565b60405180910390fd5b80600260003373ffffffffffffffffffffffffffffffffffffffff1673ffffffffffffffffffffffffffffffffffffffff16815260200190815260200160002054101561045e576040517f08c379a000000000000000000000000000000000000000000000000000000000815260040161045590610967565b60405180910390fd5b80600260003373ffffffffffffffffffffffffffffffffffffffff1673ffffffffffffffffffffffffffffffffffffffff16815260200190815260200160002060008282546104ad9190610987565b9250508190555080600260008473ffffffffffffffffffffffffffffffffffffffff1673ffffffffffffffffffffffffffffffffffffffff16815260200190815260200160002060008282546105039190610855565b92505081905550808273ffffffffffffffffffffffffffffffffffffffff167fe6d858f14d755446648a6e0c8ab8b5a0f58ccc7920d4c910b0454e4dcd869af060405160405180910390a35050565b60008054905090565b600080fd5b600073ffffffffffffffffffffffffffffffffffffffff82169050919050565b600061058b82610560565b9050919050565b61059b81610580565b81146105a657600080fd5b50565b6000813590506105b881610592565b92915050565b6000602082840312156105d4576105d361055b565b5b60006105e2848285016105a9565b91505092915050565b600081519050919050565b600082825260208201905092915050565b6000819050602082019050919050565b61062081610580565b82525050565b6000819050919050565b61063981610626565b82525050565b6040820160008201516106556000850182610617565b5060208201516106686020850182610630565b50505050565b600061067a838361063f565b60408301905092915050565b6000602082019050919050565b600061069e826105eb565b6106a881856105f6565b93506106b383610607565b8060005b838110156106e45781516106cb888261066e565b97506106d683610686565b9250506001810190506106b7565b5085935050505092915050565b6000602082019050818103600083015261070b8184610693565b905092915050565b61071c81610626565b811461072757600080fd5b50565b60008135905061073981610713565b92915050565b600080604083850312156107565761075561055b565b5b6000610764858286016105a9565b92505060206107758582860161072a565b9150509250929050565b61078881610626565b82525050565b60006020820190506107a3600083018461077f565b92915050565b600082825260208201905092915050565b7f6e6f7420616c6c6f770000000000000000000000000000000000000000000000600082015250565b60006107f06009836107a9565b91506107fb826107ba565b602082019050919050565b6000602082019050818103600083015261081f816107e3565b9050919050565b7f4e487b7100000000000000000000000000000000000000000000000000000000600052601160045260246000fd5b600061086082610626565b915061086b83610626565b925082820190508082111561088357610882610826565b5b92915050565b7f596f752063616e6e6f74207472616e73666572203020616d6f756e742e000000600082015250565b60006108bf601d836107a9565b91506108ca82610889565b602082019050919050565b600060208201905081810360008301526108ee816108b2565b9050919050565b7f596f7520646f6e2774206861766520656e6f7567682062616c616e636520746f60008201527f207472616e736665722e00000000000000000000000000000000000000000000602082015250565b6000610951602a836107a9565b915061095c826108f5565b604082019050919050565b6000602082019050818103600083015261098081610944565b9050919050565b600061099282610626565b915061099d83610626565b92508282039050818111156109b5576109b4610826565b5b9291505056fea264697066735822122099df0887096988cdccbe9ccfd18693c8cdeb00a7ca1ce96d986b69e0037e332964736f6c63430008130033",
					"opcodes": "PUSH1 0x80 PUSH1 0x40 MSTORE CALLVALUE DUP1 ISZERO PUSH2 0x10 JUMPI PUSH1 0x0 DUP1 REVERT JUMPDEST POP CALLER PUSH1 0x1 PUSH1 0x0 PUSH2 0x100 EXP DUP2 SLOAD DUP2 PUSH20 0xFFFFFFFFFFFFFFFFFFFFFFFFFFFFFFFFFFFFFFFF MUL NOT AND SWAP1 DUP4 PUSH20 0xFFFFFFFFFFFFFFFFFFFFFFFFFFFFFFFFFFFFFFFF AND MUL OR SWAP1 SSTORE POP PUSH4 0x1312D12 PUSH1 0x0 DUP2 SWAP1 SSTORE POP PUSH4 0x1312D12 PUSH1 0x2 PUSH1 0x0 PUSH1 0x1 PUSH1 0x0 SWAP1 SLOAD SWAP1 PUSH2 0x100 EXP SWAP1 DIV PUSH20 0xFFFFFFFFFFFFFFFFFFFFFFFFFFFFFFFFFFFFFFFF AND PUSH20 0xFFFFFFFFFFFFFFFFFFFFFFFFFFFFFFFFFFFFFFFF AND PUSH20 0xFFFFFFFFFFFFFFFFFFFFFFFFFFFFFFFFFFFFFFFF AND DUP2 MSTORE PUSH1 0x20 ADD SWAP1 DUP2 MSTORE PUSH1 0x20 ADD PUSH1 0x0 KECCAK256 DUP2 SWAP1 SSTORE POP PUSH2 0x9F1 DUP1 PUSH2 0xD6 PUSH1 0x0 CODECOPY PUSH1 0x0 RETURN INVALID PUSH1 0x80 PUSH1 0x40 MSTORE CALLVALUE DUP1 ISZERO PUSH2 0x10 JUMPI PUSH1 0x0 DUP1 REVERT JUMPDEST POP PUSH1 0x4 CALLDATASIZE LT PUSH2 0x57 JUMPI PUSH1 0x0 CALLDATALOAD PUSH1 0xE0 SHR DUP1 PUSH4 0x13AF4035 EQ PUSH2 0x5C JUMPI DUP1 PUSH4 0x1D6A1711 EQ PUSH2 0x78 JUMPI DUP1 PUSH4 0x51382AC7 EQ PUSH2 0xA8 JUMPI DUP1 PUSH4 0xA9059CBB EQ PUSH2 0xB2 JUMPI DUP1 PUSH4 0xC4E41B22 EQ PUSH2 0xCE JUMPI JUMPDEST PUSH1 0x0 DUP1 REVERT JUMPDEST PUSH2 0x76 PUSH1 0x4 DUP1 CALLDATASIZE SUB DUP2 ADD SWAP1 PUSH2 0x71 SWAP2 SWAP1 PUSH2 0x5BE JUMP JUMPDEST PUSH2 0xEC JUMP JUMPDEST STOP JUMPDEST PUSH2 0x92 PUSH1 0x4 DUP1 CALLDATASIZE SUB DUP2 ADD SWAP1 PUSH2 0x8D SWAP2 SWAP1 PUSH2 0x5BE JUMP JUMPDEST PUSH2 0x1C0 JUMP JUMPDEST PUSH1 0x40 MLOAD PUSH2 0x9F SWAP2 SWAP1 PUSH2 0x6F1 JUMP JUMPDEST PUSH1 0x40 MLOAD DUP1 SWAP2 SUB SWAP1 RETURN JUMPDEST PUSH2 0xB0 PUSH2 0x2BE JUMP JUMPDEST STOP JUMPDEST PUSH2 0xCC PUSH1 0x4 DUP1 CALLDATASIZE SUB DUP2 ADD SWAP1 PUSH2 0xC7 SWAP2 SWAP1 PUSH2 0x73F JUMP JUMPDEST PUSH2 0x399 JUMP JUMPDEST STOP JUMPDEST PUSH2 0xD6 PUSH2 0x552 JUMP JUMPDEST PUSH1 0x40 MLOAD PUSH2 0xE3 SWAP2 SWAP1 PUSH2 0x78E JUMP JUMPDEST PUSH1 0x40 MLOAD DUP1 SWAP2 SUB SWAP1 RETURN JUMPDEST PUSH1 0x1 PUSH1 0x0 SWAP1 SLOAD SWAP1 PUSH2 0x100 EXP SWAP1 DIV PUSH20 0xFFFFFFFFFFFFFFFFFFFFFFFFFFFFFFFFFFFFFFFF AND PUSH20 0xFFFFFFFFFFFFFFFFFFFFFFFFFFFFFFFFFFFFFFFF AND CALLER PUSH20 0xFFFFFFFFFFFFFFFFFFFFFFFFFFFFFFFFFFFFFFFF AND EQ PUSH2 0x17C JUMPI PUSH1 0x40 MLOAD PUSH32 0x8C379A000000000000000000000000000000000000000000000000000000000 DUP2 MSTORE PUSH1 0x4 ADD PUSH2 0x173 SWAP1 PUSH2 0x806 JUMP JUMPDEST PUSH1 0x40 MLOAD DUP1 SWAP2 SUB SWAP1 REVERT JUMPDEST DUP1 PUSH1 0x1 PUSH1 0x0 PUSH2 0x100 EXP DUP2 SLOAD DUP2 PUSH20 0xFFFFFFFFFFFFFFFFFFFFFFFFFFFFFFFFFFFFFFFF MUL NOT AND SWAP1 DUP4 PUSH20 0xFFFFFFFFFFFFFFFFFFFFFFFFFFFFFFFFFFFFFFFF AND MUL OR SWAP1 SSTORE POP POP JUMP JUMPDEST PUSH1 0x60 PUSH1 0x3 PUSH1 0x0 DUP4 PUSH20 0xFFFFFFFFFFFFFFFFFFFFFFFFFFFFFFFFFFFFFFFF AND PUSH20 0xFFFFFFFFFFFFFFFFFFFFFFFFFFFFFFFFFFFFFFFF AND DUP2 MSTORE PUSH1 0x20 ADD SWAP1 DUP2 MSTORE PUSH1 0x20 ADD PUSH1 0x0 KECCAK256 DUP1 SLOAD DUP1 PUSH1 0x20 MUL PUSH1 0x20 ADD PUSH1 0x40 MLOAD SWAP1 DUP2 ADD PUSH1 0x40 MSTORE DUP1 SWAP3 SWAP2 SWAP1 DUP2 DUP2 MSTORE PUSH1 0x20 ADD PUSH1 0x0 SWAP1 JUMPDEST DUP3 DUP3 LT ISZERO PUSH2 0x2B3 JUMPI DUP4 DUP3 SWAP1 PUSH1 0x0 MSTORE PUSH1 0x20 PUSH1 0x0 KECCAK256 SWAP1 PUSH1 0x2 MUL ADD PUSH1 0x40 MLOAD DUP1 PUSH1 0x40 ADD PUSH1 0x40 MSTORE SWAP1 DUP2 PUSH1 0x0 DUP3 ADD PUSH1 0x0 SWAP1 SLOAD SWAP1 PUSH2 0x100 EXP SWAP1 DIV PUSH20 0xFFFFFFFFFFFFFFFFFFFFFFFFFFFFFFFFFFFFFFFF AND PUSH20 0xFFFFFFFFFFFFFFFFFFFFFFFFFFFFFFFFFFFFFFFF AND PUSH20 0xFFFFFFFFFFFFFFFFFFFFFFFFFFFFFFFFFFFFFFFF AND DUP2 MSTORE PUSH1 0x20 ADD PUSH1 0x1 DUP3 ADD SLOAD DUP2 MSTORE POP POP DUP2 MSTORE PUSH1 0x20 ADD SWAP1 PUSH1 0x1 ADD SWAP1 PUSH2 0x221 JUMP JUMPDEST POP POP POP POP SWAP1 POP SWAP2 SWAP1 POP JUMP JUMPDEST PUSH1 0x1 PUSH1 0x0 SWAP1 SLOAD SWAP1 PUSH2 0x100 EXP SWAP1 DIV PUSH20 0xFFFFFFFFFFFFFFFFFFFFFFFFFFFFFFFFFFFFFFFF AND PUSH20 0xFFFFFFFFFFFFFFFFFFFFFFFFFFFFFFFFFFFFFFFF AND CALLER PUSH20 0xFFFFFFFFFFFFFFFFFFFFFFFFFFFFFFFFFFFFFFFF AND EQ PUSH2 0x34E JUMPI PUSH1 0x40 MLOAD PUSH32 0x8C379A000000000000000000000000000000000000000000000000000000000 DUP2 MSTORE PUSH1 0x4 ADD PUSH2 0x345 SWAP1 PUSH2 0x806 JUMP JUMPDEST PUSH1 0x40 MLOAD DUP1 SWAP2 SUB SWAP1 REVERT JUMPDEST PUSH2 0x2702 PUSH1 0x0 DUP1 DUP3 DUP3 SLOAD PUSH2 0x361 SWAP2 SWAP1 PUSH2 0x855 JUMP JUMPDEST SWAP3 POP POP DUP2 SWAP1 SSTORE POP PUSH1 0x0 SLOAD PUSH32 0xC8B17F75F53401F272E9EE7FA431E81BA33779363238896180425A422420C8F7 PUSH1 0x40 MLOAD PUSH1 0x40 MLOAD DUP1 SWAP2 SUB SWAP1 LOG2 JUMP JUMPDEST PUSH1 0x0 DUP2 GT PUSH2 0x3DC JUMPI PUSH1 0x40 MLOAD PUSH32 0x8C379A000000000000000000000000000000000000000000000000000000000 DUP2 MSTORE PUSH1 0x4 ADD PUSH2 0x3D3 SWAP1 PUSH2 0x8D5 JUMP JUMPDEST PUSH1 0x40 MLOAD DUP1 SWAP2 SUB SWAP1 REVERT JUMPDEST DUP1 PUSH1 0x2 PUSH1 0x0 CALLER PUSH20 0xFFFFFFFFFFFFFFFFFFFFFFFFFFFFFFFFFFFFFFFF AND PUSH20 0xFFFFFFFFFFFFFFFFFFFFFFFFFFFFFFFFFFFFFFFF AND DUP2 MSTORE PUSH1 0x20 ADD SWAP1 DUP2 MSTORE PUSH1 0x20 ADD PUSH1 0x0 KECCAK256 SLOAD LT ISZERO PUSH2 0x45E JUMPI PUSH1 0x40 MLOAD PUSH32 0x8C379A000000000000000000000000000000000000000000000000000000000 DUP2 MSTORE PUSH1 0x4 ADD PUSH2 0x455 SWAP1 PUSH2 0x967 JUMP JUMPDEST PUSH1 0x40 MLOAD DUP1 SWAP2 SUB SWAP1 REVERT JUMPDEST DUP1 PUSH1 0x2 PUSH1 0x0 CALLER PUSH20 0xFFFFFFFFFFFFFFFFFFFFFFFFFFFFFFFFFFFFFFFF AND PUSH20 0xFFFFFFFFFFFFFFFFFFFFFFFFFFFFFFFFFFFFFFFF AND DUP2 MSTORE PUSH1 0x20 ADD SWAP1 DUP2 MSTORE PUSH1 0x20 ADD PUSH1 0x0 KECCAK256 PUSH1 0x0 DUP3 DUP3 SLOAD PUSH2 0x4AD SWAP2 SWAP1 PUSH2 0x987 JUMP JUMPDEST SWAP3 POP POP DUP2 SWAP1 SSTORE POP DUP1 PUSH1 0x2 PUSH1 0x0 DUP5 PUSH20 0xFFFFFFFFFFFFFFFFFFFFFFFFFFFFFFFFFFFFFFFF AND PUSH20 0xFFFFFFFFFFFFFFFFFFFFFFFFFFFFFFFFFFFFFFFF AND DUP2 MSTORE PUSH1 0x20 ADD SWAP1 DUP2 MSTORE PUSH1 0x20 ADD PUSH1 0x0 KECCAK256 PUSH1 0x0 DUP3 DUP3 SLOAD PUSH2 0x503 SWAP2 SWAP1 PUSH2 0x855 JUMP JUMPDEST SWAP3 POP POP DUP2 SWAP1 SSTORE POP DUP1 DUP3 PUSH20 0xFFFFFFFFFFFFFFFFFFFFFFFFFFFFFFFFFFFFFFFF AND PUSH32 0xE6D858F14D755446648A6E0C8AB8B5A0F58CCC7920D4C910B0454E4DCD869AF0 PUSH1 0x40 MLOAD PUSH1 0x40 MLOAD DUP1 SWAP2 SUB SWAP1 LOG3 POP POP JUMP JUMPDEST PUSH1 0x0 DUP1 SLOAD SWAP1 POP SWAP1 JUMP JUMPDEST PUSH1 0x0 DUP1 REVERT JUMPDEST PUSH1 0x0 PUSH20 0xFFFFFFFFFFFFFFFFFFFFFFFFFFFFFFFFFFFFFFFF DUP3 AND SWAP1 POP SWAP2 SWAP1 POP JUMP JUMPDEST PUSH1 0x0 PUSH2 0x58B DUP3 PUSH2 0x560 JUMP JUMPDEST SWAP1 POP SWAP2 SWAP1 POP JUMP JUMPDEST PUSH2 0x59B DUP2 PUSH2 0x580 JUMP JUMPDEST DUP2 EQ PUSH2 0x5A6 JUMPI PUSH1 0x0 DUP1 REVERT JUMPDEST POP JUMP JUMPDEST PUSH1 0x0 DUP2 CALLDATALOAD SWAP1 POP PUSH2 0x5B8 DUP2 PUSH2 0x592 JUMP JUMPDEST SWAP3 SWAP2 POP POP JUMP JUMPDEST PUSH1 0x0 PUSH1 0x20 DUP3 DUP5 SUB SLT ISZERO PUSH2 0x5D4 JUMPI PUSH2 0x5D3 PUSH2 0x55B JUMP JUMPDEST JUMPDEST PUSH1 0x0 PUSH2 0x5E2 DUP5 DUP3 DUP6 ADD PUSH2 0x5A9 JUMP JUMPDEST SWAP2 POP POP SWAP3 SWAP2 POP POP JUMP JUMPDEST PUSH1 0x0 DUP2 MLOAD SWAP1 POP SWAP2 SWAP1 POP JUMP JUMPDEST PUSH1 0x0 DUP3 DUP3 MSTORE PUSH1 0x20 DUP3 ADD SWAP1 POP SWAP3 SWAP2 POP POP JUMP JUMPDEST PUSH1 0x0 DUP2 SWAP1 POP PUSH1 0x20 DUP3 ADD SWAP1 POP SWAP2 SWAP1 POP JUMP JUMPDEST PUSH2 0x620 DUP2 PUSH2 0x580 JUMP JUMPDEST DUP3 MSTORE POP POP JUMP JUMPDEST PUSH1 0x0 DUP2 SWAP1 POP SWAP2 SWAP1 POP JUMP JUMPDEST PUSH2 0x639 DUP2 PUSH2 0x626 JUMP JUMPDEST DUP3 MSTORE POP POP JUMP JUMPDEST PUSH1 0x40 DUP3 ADD PUSH1 0x0 DUP3 ADD MLOAD PUSH2 0x655 PUSH1 0x0 DUP6 ADD DUP3 PUSH2 0x617 JUMP JUMPDEST POP PUSH1 0x20 DUP3 ADD MLOAD PUSH2 0x668 PUSH1 0x20 DUP6 ADD DUP3 PUSH2 0x630 JUMP JUMPDEST POP POP POP POP JUMP JUMPDEST PUSH1 0x0 PUSH2 0x67A DUP4 DUP4 PUSH2 0x63F JUMP JUMPDEST PUSH1 0x40 DUP4 ADD SWAP1 POP SWAP3 SWAP2 POP POP JUMP JUMPDEST PUSH1 0x0 PUSH1 0x20 DUP3 ADD SWAP1 POP SWAP2 SWAP1 POP JUMP JUMPDEST PUSH1 0x0 PUSH2 0x69E DUP3 PUSH2 0x5EB JUMP JUMPDEST PUSH2 0x6A8 DUP2 DUP6 PUSH2 0x5F6 JUMP JUMPDEST SWAP4 POP PUSH2 0x6B3 DUP4 PUSH2 0x607 JUMP JUMPDEST DUP1 PUSH1 0x0 JUMPDEST DUP4 DUP2 LT ISZERO PUSH2 0x6E4 JUMPI DUP2 MLOAD PUSH2 0x6CB DUP9 DUP3 PUSH2 0x66E JUMP JUMPDEST SWAP8 POP PUSH2 0x6D6 DUP4 PUSH2 0x686 JUMP JUMPDEST SWAP3 POP POP PUSH1 0x1 DUP2 ADD SWAP1 POP PUSH2 0x6B7 JUMP JUMPDEST POP DUP6 SWAP4 POP POP POP POP SWAP3 SWAP2 POP POP JUMP JUMPDEST PUSH1 0x0 PUSH1 0x20 DUP3 ADD SWAP1 POP DUP2 DUP2 SUB PUSH1 0x0 DUP4 ADD MSTORE PUSH2 0x70B DUP2 DUP5 PUSH2 0x693 JUMP JUMPDEST SWAP1 POP SWAP3 SWAP2 POP POP JUMP JUMPDEST PUSH2 0x71C DUP2 PUSH2 0x626 JUMP JUMPDEST DUP2 EQ PUSH2 0x727 JUMPI PUSH1 0x0 DUP1 REVERT JUMPDEST POP JUMP JUMPDEST PUSH1 0x0 DUP2 CALLDATALOAD SWAP1 POP PUSH2 0x739 DUP2 PUSH2 0x713 JUMP JUMPDEST SWAP3 SWAP2 POP POP JUMP JUMPDEST PUSH1 0x0 DUP1 PUSH1 0x40 DUP4 DUP6 SUB SLT ISZERO PUSH2 0x756 JUMPI PUSH2 0x755 PUSH2 0x55B JUMP JUMPDEST JUMPDEST PUSH1 0x0 PUSH2 0x764 DUP6 DUP3 DUP7 ADD PUSH2 0x5A9 JUMP JUMPDEST SWAP3 POP POP PUSH1 0x20 PUSH2 0x775 DUP6 DUP3 DUP7 ADD PUSH2 0x72A JUMP JUMPDEST SWAP2 POP POP SWAP3 POP SWAP3 SWAP1 POP JUMP JUMPDEST PUSH2 0x788 DUP2 PUSH2 0x626 JUMP JUMPDEST DUP3 MSTORE POP POP JUMP JUMPDEST PUSH1 0x0 PUSH1 0x20 DUP3 ADD SWAP1 POP PUSH2 0x7A3 PUSH1 0x0 DUP4 ADD DUP5 PUSH2 0x77F JUMP JUMPDEST SWAP3 SWAP2 POP POP JUMP JUMPDEST PUSH1 0x0 DUP3 DUP3 MSTORE PUSH1 0x20 DUP3 ADD SWAP1 POP SWAP3 SWAP2 POP POP JUMP JUMPDEST PUSH32 0x6E6F7420616C6C6F770000000000000000000000000000000000000000000000 PUSH1 0x0 DUP3 ADD MSTORE POP JUMP JUMPDEST PUSH1 0x0 PUSH2 0x7F0 PUSH1 0x9 DUP4 PUSH2 0x7A9 JUMP JUMPDEST SWAP2 POP PUSH2 0x7FB DUP3 PUSH2 0x7BA JUMP JUMPDEST PUSH1 0x20 DUP3 ADD SWAP1 POP SWAP2 SWAP1 POP JUMP JUMPDEST PUSH1 0x0 PUSH1 0x20 DUP3 ADD SWAP1 POP DUP2 DUP2 SUB PUSH1 0x0 DUP4 ADD MSTORE PUSH2 0x81F DUP2 PUSH2 0x7E3 JUMP JUMPDEST SWAP1 POP SWAP2 SWAP1 POP JUMP JUMPDEST PUSH32 0x4E487B7100000000000000000000000000000000000000000000000000000000 PUSH1 0x0 MSTORE PUSH1 0x11 PUSH1 0x4 MSTORE PUSH1 0x24 PUSH1 0x0 REVERT JUMPDEST PUSH1 0x0 PUSH2 0x860 DUP3 PUSH2 0x626 JUMP JUMPDEST SWAP2 POP PUSH2 0x86B DUP4 PUSH2 0x626 JUMP JUMPDEST SWAP3 POP DUP3 DUP3 ADD SWAP1 POP DUP1 DUP3 GT ISZERO PUSH2 0x883 JUMPI PUSH2 0x882 PUSH2 0x826 JUMP JUMPDEST JUMPDEST SWAP3 SWAP2 POP POP JUMP JUMPDEST PUSH32 0x596F752063616E6E6F74207472616E73666572203020616D6F756E742E000000 PUSH1 0x0 DUP3 ADD MSTORE POP JUMP JUMPDEST PUSH1 0x0 PUSH2 0x8BF PUSH1 0x1D DUP4 PUSH2 0x7A9 JUMP JUMPDEST SWAP2 POP PUSH2 0x8CA DUP3 PUSH2 0x889 JUMP JUMPDEST PUSH1 0x20 DUP3 ADD SWAP1 POP SWAP2 SWAP1 POP JUMP JUMPDEST PUSH1 0x0 PUSH1 0x20 DUP3 ADD SWAP1 POP DUP2 DUP2 SUB PUSH1 0x0 DUP4 ADD MSTORE PUSH2 0x8EE DUP2 PUSH2 0x8B2 JUMP JUMPDEST SWAP1 POP SWAP2 SWAP1 POP JUMP JUMPDEST PUSH32 0x596F7520646F6E2774206861766520656E6F7567682062616C616E636520746F PUSH1 0x0 DUP3 ADD MSTORE PUSH32 0x207472616E736665722E00000000000000000000000000000000000000000000 PUSH1 0x20 DUP3 ADD MSTORE POP JUMP JUMPDEST PUSH1 0x0 PUSH2 0x951 PUSH1 0x2A DUP4 PUSH2 0x7A9 JUMP JUMPDEST SWAP2 POP PUSH2 0x95C DUP3 PUSH2 0x8F5 JUMP JUMPDEST PUSH1 0x40 DUP3 ADD SWAP1 POP SWAP2 SWAP1 POP JUMP JUMPDEST PUSH1 0x0 PUSH1 0x20 DUP3 ADD SWAP1 POP DUP2 DUP2 SUB PUSH1 0x0 DUP4 ADD MSTORE PUSH2 0x980 DUP2 PUSH2 0x944 JUMP JUMPDEST SWAP1 POP SWAP2 SWAP1 POP JUMP JUMPDEST PUSH1 0x0 PUSH2 0x992 DUP3 PUSH2 0x626 JUMP JUMPDEST SWAP2 POP PUSH2 0x99D DUP4 PUSH2 0x626 JUMP JUMPDEST SWAP3 POP DUP3 DUP3 SUB SWAP1 POP DUP2 DUP2 GT ISZERO PUSH2 0x9B5 JUMPI PUSH2 0x9B4 PUSH2 0x826 JUMP JUMPDEST JUMPDEST SWAP3 SWAP2 POP POP JUMP INVALID LOG2 PUSH5 0x6970667358 0x22 SLT KECCAK256 SWAP10 0xDF ADDMOD DUP8 MULMOD PUSH10 0x88CDCCBE9CCFD18693C8 0xCD 0xEB STOP 0xA7 0xCA SHR 0xE9 PUSH14 0x986B69E0037E332964736F6C6343 STOP ADDMOD SGT STOP CALLER "
				},
				"gasEstimates": {
					"creation": {
						"codeDepositCost": "509000",
						"executionCost": "71263",
						"totalCost": "580263"
					},
					"external": {
						"getPayments(address)": "infinite",
						"getTotalSupply()": "2503",
						"increaseThousandSupply()": "infinite",
						"setOwner(address)": "26870",
						"transfer(address,uint256)": "infinite"
					}
				},
				"methodIdentifiers": {
					"getPayments(address)": "1d6a1711",
					"getTotalSupply()": "c4e41b22",
					"increaseThousandSupply()": "51382ac7",
					"setOwner(address)": "13af4035",
					"transfer(address,uint256)": "a9059cbb"
				}
			},
			"storageLayout": {
				"storage": [
					{
						"astId": 4,
						"contract": "contracts/DogCoin.sol:DogCoin",
						"label": "totalSupply",
						"offset": 0,
						"slot": "0",
						"type": "t_uint256"
					},
					{
						"astId": 6,
						"contract": "contracts/DogCoin.sol:DogCoin",
						"label": "owner",
						"offset": 0,
						"slot": "1",
						"type": "t_address"
					},
					{
						"astId": 15,
						"contract": "contracts/DogCoin.sol:DogCoin",
						"label": "balances",
						"offset": 0,
						"slot": "2",
						"type": "t_mapping(t_address,t_uint256)"
					},
					{
						"astId": 21,
						"contract": "contracts/DogCoin.sol:DogCoin",
						"label": "payments",
						"offset": 0,
						"slot": "3",
						"type": "t_mapping(t_address,t_array(t_struct(Payment)11_storage)dyn_storage)"
					}
				],
				"types": {
					"t_address": {
						"encoding": "inplace",
						"label": "address",
						"numberOfBytes": "20"
					},
					"t_array(t_struct(Payment)11_storage)dyn_storage": {
						"base": "t_struct(Payment)11_storage",
						"encoding": "dynamic_array",
						"label": "struct DogCoin.Payment[]",
						"numberOfBytes": "32"
					},
					"t_mapping(t_address,t_array(t_struct(Payment)11_storage)dyn_storage)": {
						"encoding": "mapping",
						"key": "t_address",
						"label": "mapping(address => struct DogCoin.Payment[])",
						"numberOfBytes": "32",
						"value": "t_array(t_struct(Payment)11_storage)dyn_storage"
					},
					"t_mapping(t_address,t_uint256)": {
						"encoding": "mapping",
						"key": "t_address",
						"label": "mapping(address => uint256)",
						"numberOfBytes": "32",
						"value": "t_uint256"
					},
					"t_struct(Payment)11_storage": {
						"encoding": "inplace",
						"label": "struct DogCoin.Payment",
						"members": [
							{
								"astId": 8,
								"contract": "contracts/DogCoin.sol:DogCoin",
								"label": "amount",
								"offset": 0,
								"slot": "0",
								"type": "t_address"
							},
							{
								"astId": 10,
								"contract": "contracts/DogCoin.sol:DogCoin",
								"label": "recipient",
								"offset": 0,
								"slot": "1",
								"type": "t_uint256"
							}
						],
						"numberOfBytes": "64"
					},
					"t_uint256": {
						"encoding": "inplace",
						"label": "uint256",
						"numberOfBytes": "32"
					}
				}
			},
			"userdoc": {
				"kind": "user",
				"methods": {},
				"version": 1
			}
		}
	}
}