{
	"contracts/Level_2.sol_flattened.sol": {
		"Level_2_Solution": {
			"abi": [
				{
					"inputs": [
						{
							"internalType": "uint256[10]",
							"name": "unsortedArray",
							"type": "uint256[10]"
						}
					],
					"name": "solution",
					"outputs": [
						{
							"internalType": "uint256[10]",
							"name": "sortedArray",
							"type": "uint256[10]"
						}
					],
					"stateMutability": "pure",
					"type": "function"
				}
			],
			"devdoc": {
				"kind": "dev",
				"methods": {},
				"version": 1
			},
			"evm": {
				"assembly": "    /* \"contracts/Level_2.sol_flattened.sol\":59:1014  contract Level_2_Solution {... */\n  mstore(0x40, 0x80)\n  callvalue\n  dup1\n  iszero\n  tag_1\n  jumpi\n  0x00\n  dup1\n  revert\ntag_1:\n  pop\n  dataSize(sub_0)\n  dup1\n  dataOffset(sub_0)\n  0x00\n  codecopy\n  0x00\n  return\nstop\n\nsub_0: assembly {\n        /* \"contracts/Level_2.sol_flattened.sol\":59:1014  contract Level_2_Solution {... */\n      mstore(0x40, 0x80)\n      callvalue\n      dup1\n      iszero\n      tag_1\n      jumpi\n      0x00\n      dup1\n      revert\n    tag_1:\n      pop\n      jumpi(tag_2, lt(calldatasize, 0x04))\n      shr(0xe0, calldataload(0x00))\n      dup1\n      0x209b472e\n      eq\n      tag_3\n      jumpi\n    tag_2:\n      0x00\n      dup1\n      revert\n        /* \"contracts/Level_2.sol_flattened.sol\":100:318  function solution(uint256[10] calldata unsortedArray) external pure returns (uint256[10] memory sortedArray){... */\n    tag_3:\n      tag_4\n      0x04\n      dup1\n      calldatasize\n      sub\n      dup2\n      add\n      swap1\n      tag_5\n      swap2\n      swap1\n      tag_6\n      jump\t// in\n    tag_5:\n      tag_7\n      jump\t// in\n    tag_4:\n      mload(0x40)\n      tag_8\n      swap2\n      swap1\n      tag_9\n      jump\t// in\n    tag_8:\n      mload(0x40)\n      dup1\n      swap2\n      sub\n      swap1\n      return\n    tag_7:\n        /* \"contracts/Level_2.sol_flattened.sol\":177:207  uint256[10] memory sortedArray */\n      tag_10\n      tag_11\n      jump\t// in\n    tag_10:\n        /* \"contracts/Level_2.sol_flattened.sol\":232:245  unsortedArray */\n      dup2\n        /* \"contracts/Level_2.sol_flattened.sol\":218:245  sortedArray = unsortedArray */\n      0x0a\n      dup1\n      0x20\n      mul\n      mload(0x40)\n      swap1\n      dup2\n      add\n      0x40\n      mstore\n      dup1\n      swap3\n      swap2\n      swap1\n      dup3\n      mul(0x20, 0x0a)\n      dup1\n      dup3\n      dup5\n      calldatacopy\n      0x00\n      dup2\n      dup5\n      add\n      mstore\n      not(0x1f)\n      0x1f\n      dup3\n      add\n      and\n      swap1\n      pop\n      dup1\n      dup4\n      add\n      swap3\n      pop\n      pop\n      pop\n      pop\n      pop\n      pop\n      swap1\n      pop\n        /* \"contracts/Level_2.sol_flattened.sol\":255:283  quickPart(sortedArray, 0, 9) */\n      tag_13\n        /* \"contracts/Level_2.sol_flattened.sol\":265:276  sortedArray */\n      dup2\n        /* \"contracts/Level_2.sol_flattened.sol\":278:279  0 */\n      0x00\n        /* \"contracts/Level_2.sol_flattened.sol\":281:282  9 */\n      0x09\n        /* \"contracts/Level_2.sol_flattened.sol\":255:264  quickPart */\n      tag_14\n        /* \"contracts/Level_2.sol_flattened.sol\":255:283  quickPart(sortedArray, 0, 9) */\n      jump\t// in\n    tag_13:\n        /* \"contracts/Level_2.sol_flattened.sol\":100:318  function solution(uint256[10] calldata unsortedArray) external pure returns (uint256[10] memory sortedArray){... */\n      swap2\n      swap1\n      pop\n      jump\t// out\n        /* \"contracts/Level_2.sol_flattened.sol\":324:1012  function quickPart(uint[10] memory data, uint low, uint high) internal pure {... */\n    tag_14:\n        /* \"contracts/Level_2.sol_flattened.sol\":420:424  high */\n      dup1\n        /* \"contracts/Level_2.sol_flattened.sol\":414:417  low */\n      dup3\n        /* \"contracts/Level_2.sol_flattened.sol\":414:424  low < high */\n      lt\n        /* \"contracts/Level_2.sol_flattened.sol\":410:1006  if (low < high) {... */\n      iszero\n      tag_16\n      jumpi\n        /* \"contracts/Level_2.sol_flattened.sol\":440:453  uint pivotVal */\n      0x00\n        /* \"contracts/Level_2.sol_flattened.sol\":456:460  data */\n      dup4\n        /* \"contracts/Level_2.sol_flattened.sol\":476:477  2 */\n      0x02\n        /* \"contracts/Level_2.sol_flattened.sol\":468:472  high */\n      dup4\n        /* \"contracts/Level_2.sol_flattened.sol\":462:465  low */\n      dup6\n        /* \"contracts/Level_2.sol_flattened.sol\":462:472  low + high */\n      tag_17\n      swap2\n      swap1\n      tag_18\n      jump\t// in\n    tag_17:\n        /* \"contracts/Level_2.sol_flattened.sol\":461:477  (low + high) / 2 */\n      tag_19\n      swap2\n      swap1\n      tag_20\n      jump\t// in\n    tag_19:\n        /* \"contracts/Level_2.sol_flattened.sol\":456:478  data[(low + high) / 2] */\n      0x0a\n      dup2\n      lt\n      tag_21\n      jumpi\n      tag_22\n      tag_23\n      jump\t// in\n    tag_22:\n    tag_21:\n      0x20\n      mul\n      add\n      mload\n        /* \"contracts/Level_2.sol_flattened.sol\":440:478  uint pivotVal = data[(low + high) / 2] */\n      swap1\n      pop\n        /* \"contracts/Level_2.sol_flattened.sol\":501:510  uint low1 */\n      0x00\n        /* \"contracts/Level_2.sol_flattened.sol\":513:516  low */\n      dup4\n        /* \"contracts/Level_2.sol_flattened.sol\":501:516  uint low1 = low */\n      swap1\n      pop\n        /* \"contracts/Level_2.sol_flattened.sol\":530:540  uint high1 */\n      0x00\n        /* \"contracts/Level_2.sol_flattened.sol\":543:547  high */\n      dup4\n        /* \"contracts/Level_2.sol_flattened.sol\":530:547  uint high1 = high */\n      swap1\n      pop\n        /* \"contracts/Level_2.sol_flattened.sol\":561:857  for (;;) {... */\n    tag_24:\n        /* \"contracts/Level_2.sol_flattened.sol\":588:624  while (data[low1] < pivotVal) low1++ */\n    tag_27:\n        /* \"contracts/Level_2.sol_flattened.sol\":608:616  pivotVal */\n      dup3\n        /* \"contracts/Level_2.sol_flattened.sol\":595:599  data */\n      dup7\n        /* \"contracts/Level_2.sol_flattened.sol\":600:604  low1 */\n      dup4\n        /* \"contracts/Level_2.sol_flattened.sol\":595:605  data[low1] */\n      0x0a\n      dup2\n      lt\n      tag_29\n      jumpi\n      tag_30\n      tag_23\n      jump\t// in\n    tag_30:\n    tag_29:\n      0x20\n      mul\n      add\n      mload\n        /* \"contracts/Level_2.sol_flattened.sol\":595:616  data[low1] < pivotVal */\n      lt\n        /* \"contracts/Level_2.sol_flattened.sol\":588:624  while (data[low1] < pivotVal) low1++ */\n      iszero\n      tag_28\n      jumpi\n        /* \"contracts/Level_2.sol_flattened.sol\":618:624  low1++ */\n      dup2\n      dup1\n      tag_31\n      swap1\n      tag_32\n      jump\t// in\n    tag_31:\n      swap3\n      pop\n      pop\n        /* \"contracts/Level_2.sol_flattened.sol\":588:624  while (data[low1] < pivotVal) low1++ */\n      jump(tag_27)\n    tag_28:\n        /* \"contracts/Level_2.sol_flattened.sol\":642:680  while (data[high1] > pivotVal) high1-- */\n    tag_33:\n        /* \"contracts/Level_2.sol_flattened.sol\":663:671  pivotVal */\n      dup3\n        /* \"contracts/Level_2.sol_flattened.sol\":649:653  data */\n      dup7\n        /* \"contracts/Level_2.sol_flattened.sol\":654:659  high1 */\n      dup3\n        /* \"contracts/Level_2.sol_flattened.sol\":649:660  data[high1] */\n      0x0a\n      dup2\n      lt\n      tag_35\n      jumpi\n      tag_36\n      tag_23\n      jump\t// in\n    tag_36:\n    tag_35:\n      0x20\n      mul\n      add\n      mload\n        /* \"contracts/Level_2.sol_flattened.sol\":649:671  data[high1] > pivotVal */\n      gt\n        /* \"contracts/Level_2.sol_flattened.sol\":642:680  while (data[high1] > pivotVal) high1-- */\n      iszero\n      tag_34\n      jumpi\n        /* \"contracts/Level_2.sol_flattened.sol\":673:680  high1-- */\n      dup1\n      dup1\n      tag_37\n      swap1\n      tag_38\n      jump\t// in\n    tag_37:\n      swap2\n      pop\n      pop\n        /* \"contracts/Level_2.sol_flattened.sol\":642:680  while (data[high1] > pivotVal) high1-- */\n      jump(tag_33)\n    tag_34:\n        /* \"contracts/Level_2.sol_flattened.sol\":710:715  high1 */\n      dup1\n        /* \"contracts/Level_2.sol_flattened.sol\":702:706  low1 */\n      dup3\n        /* \"contracts/Level_2.sol_flattened.sol\":702:715  low1 >= high1 */\n      lt\n        /* \"contracts/Level_2.sol_flattened.sol\":698:722  if (low1 >= high1) break */\n      iszero\n        /* \"contracts/Level_2.sol_flattened.sol\":717:722  break */\n      tag_25\n        /* \"contracts/Level_2.sol_flattened.sol\":698:722  if (low1 >= high1) break */\n      jumpi\n        /* \"contracts/Level_2.sol_flattened.sol\":769:773  data */\n      dup6\n        /* \"contracts/Level_2.sol_flattened.sol\":774:779  high1 */\n      dup2\n        /* \"contracts/Level_2.sol_flattened.sol\":769:780  data[high1] */\n      0x0a\n      dup2\n      lt\n      tag_40\n      jumpi\n      tag_41\n      tag_23\n      jump\t// in\n    tag_41:\n    tag_40:\n      0x20\n      mul\n      add\n      mload\n        /* \"contracts/Level_2.sol_flattened.sol\":782:786  data */\n      dup7\n        /* \"contracts/Level_2.sol_flattened.sol\":787:791  low1 */\n      dup4\n        /* \"contracts/Level_2.sol_flattened.sol\":782:792  data[low1] */\n      0x0a\n      dup2\n      lt\n      tag_42\n      jumpi\n      tag_43\n      tag_23\n      jump\t// in\n    tag_43:\n    tag_42:\n      0x20\n      mul\n      add\n      mload\n        /* \"contracts/Level_2.sol_flattened.sol\":741:745  data */\n      dup8\n        /* \"contracts/Level_2.sol_flattened.sol\":746:750  low1 */\n      dup5\n        /* \"contracts/Level_2.sol_flattened.sol\":741:751  data[low1] */\n      0x0a\n      dup2\n      lt\n      tag_44\n      jumpi\n      tag_45\n      tag_23\n      jump\t// in\n    tag_45:\n    tag_44:\n      0x20\n      mul\n      add\n        /* \"contracts/Level_2.sol_flattened.sol\":753:757  data */\n      dup9\n        /* \"contracts/Level_2.sol_flattened.sol\":758:763  high1 */\n      dup5\n        /* \"contracts/Level_2.sol_flattened.sol\":753:764  data[high1] */\n      0x0a\n      dup2\n      lt\n      tag_46\n      jumpi\n      tag_47\n      tag_23\n      jump\t// in\n    tag_47:\n    tag_46:\n      0x20\n      mul\n      add\n        /* \"contracts/Level_2.sol_flattened.sol\":740:793  (data[low1], data[high1]) = (data[high1], data[low1]) */\n      dup3\n      dup2\n      mstore\n      pop\n      dup3\n      dup2\n      mstore\n      pop\n      pop\n      pop\n        /* \"contracts/Level_2.sol_flattened.sol\":811:817  low1++ */\n      dup2\n      dup1\n      tag_48\n      swap1\n      tag_32\n      jump\t// in\n    tag_48:\n      swap3\n      pop\n      pop\n        /* \"contracts/Level_2.sol_flattened.sol\":835:842  high1-- */\n      dup1\n      dup1\n      tag_49\n      swap1\n      tag_38\n      jump\t// in\n    tag_49:\n      swap2\n      pop\n      pop\n        /* \"contracts/Level_2.sol_flattened.sol\":561:857  for (;;) {... */\n      jump(tag_24)\n    tag_25:\n        /* \"contracts/Level_2.sol_flattened.sol\":880:885  high1 */\n      dup1\n        /* \"contracts/Level_2.sol_flattened.sol\":874:877  low */\n      dup6\n        /* \"contracts/Level_2.sol_flattened.sol\":874:885  low < high1 */\n      lt\n        /* \"contracts/Level_2.sol_flattened.sol\":870:914  if (low < high1) quickPart(data, low, high1) */\n      iszero\n      tag_50\n      jumpi\n        /* \"contracts/Level_2.sol_flattened.sol\":887:914  quickPart(data, low, high1) */\n      tag_51\n        /* \"contracts/Level_2.sol_flattened.sol\":897:901  data */\n      dup7\n        /* \"contracts/Level_2.sol_flattened.sol\":903:906  low */\n      dup7\n        /* \"contracts/Level_2.sol_flattened.sol\":908:913  high1 */\n      dup4\n        /* \"contracts/Level_2.sol_flattened.sol\":887:896  quickPart */\n      tag_14\n        /* \"contracts/Level_2.sol_flattened.sol\":887:914  quickPart(data, low, high1) */\n      jump\t// in\n    tag_51:\n        /* \"contracts/Level_2.sol_flattened.sol\":870:914  if (low < high1) quickPart(data, low, high1) */\n    tag_50:\n        /* \"contracts/Level_2.sol_flattened.sol\":928:935  high1++ */\n      dup1\n      dup1\n      tag_52\n      swap1\n      tag_32\n      jump\t// in\n    tag_52:\n      swap2\n      pop\n      pop\n        /* \"contracts/Level_2.sol_flattened.sol\":961:965  high */\n      dup4\n        /* \"contracts/Level_2.sol_flattened.sol\":953:958  high1 */\n      dup2\n        /* \"contracts/Level_2.sol_flattened.sol\":953:965  high1 < high */\n      lt\n        /* \"contracts/Level_2.sol_flattened.sol\":949:995  if (high1 < high) quickPart(data, high1, high) */\n      iszero\n      tag_53\n      jumpi\n        /* \"contracts/Level_2.sol_flattened.sol\":967:995  quickPart(data, high1, high) */\n      tag_54\n        /* \"contracts/Level_2.sol_flattened.sol\":977:981  data */\n      dup7\n        /* \"contracts/Level_2.sol_flattened.sol\":983:988  high1 */\n      dup3\n        /* \"contracts/Level_2.sol_flattened.sol\":990:994  high */\n      dup7\n        /* \"contracts/Level_2.sol_flattened.sol\":967:976  quickPart */\n      tag_14\n        /* \"contracts/Level_2.sol_flattened.sol\":967:995  quickPart(data, high1, high) */\n      jump\t// in\n    tag_54:\n        /* \"contracts/Level_2.sol_flattened.sol\":949:995  if (high1 < high) quickPart(data, high1, high) */\n    tag_53:\n        /* \"contracts/Level_2.sol_flattened.sol\":426:1006  {... */\n      pop\n      pop\n      pop\n        /* \"contracts/Level_2.sol_flattened.sol\":410:1006  if (low < high) {... */\n    tag_16:\n        /* \"contracts/Level_2.sol_flattened.sol\":324:1012  function quickPart(uint[10] memory data, uint low, uint high) internal pure {... */\n      pop\n      pop\n      pop\n      jump\t// out\n    tag_11:\n      mload(0x40)\n      dup1\n      0x0140\n      add\n      0x40\n      mstore\n      dup1\n      0x0a\n      swap1\n      0x20\n      dup3\n      mul\n      dup1\n      calldatasize\n      dup4\n      calldatacopy\n      dup1\n      dup3\n      add\n      swap2\n      pop\n      pop\n      swap1\n      pop\n      pop\n      swap1\n      jump\t// out\n        /* \"#utility.yul\":88:205   */\n    tag_56:\n        /* \"#utility.yul\":197:198   */\n      0x00\n        /* \"#utility.yul\":194:195   */\n      dup1\n        /* \"#utility.yul\":187:199   */\n      revert\n        /* \"#utility.yul\":334:451   */\n    tag_58:\n        /* \"#utility.yul\":443:444   */\n      0x00\n        /* \"#utility.yul\":440:441   */\n      dup1\n        /* \"#utility.yul\":433:445   */\n      revert\n        /* \"#utility.yul\":476:726   */\n    tag_59:\n        /* \"#utility.yul\":548:556   */\n      0x00\n        /* \"#utility.yul\":579:585   */\n      dup2\n        /* \"#utility.yul\":567:585   */\n      swap1\n      pop\n        /* \"#utility.yul\":632:635   */\n      dup3\n        /* \"#utility.yul\":624:628   */\n      0x20\n        /* \"#utility.yul\":618:622   */\n      0x0a\n        /* \"#utility.yul\":614:629   */\n      mul\n        /* \"#utility.yul\":604:612   */\n      dup3\n        /* \"#utility.yul\":600:630   */\n      add\n        /* \"#utility.yul\":597:636   */\n      gt\n        /* \"#utility.yul\":594:720   */\n      iszero\n      tag_76\n      jumpi\n        /* \"#utility.yul\":639:718   */\n      tag_77\n      tag_58\n      jump\t// in\n    tag_77:\n        /* \"#utility.yul\":594:720   */\n    tag_76:\n        /* \"#utility.yul\":476:726   */\n      swap3\n      swap2\n      pop\n      pop\n      jump\t// out\n        /* \"#utility.yul\":732:1114   */\n    tag_6:\n        /* \"#utility.yul\":817:823   */\n      0x00\n        /* \"#utility.yul\":866:869   */\n      0x0140\n        /* \"#utility.yul\":854:863   */\n      dup3\n        /* \"#utility.yul\":845:852   */\n      dup5\n        /* \"#utility.yul\":841:864   */\n      sub\n        /* \"#utility.yul\":837:870   */\n      slt\n        /* \"#utility.yul\":834:954   */\n      iszero\n      tag_79\n      jumpi\n        /* \"#utility.yul\":873:952   */\n      tag_80\n      tag_56\n      jump\t// in\n    tag_80:\n        /* \"#utility.yul\":834:954   */\n    tag_79:\n        /* \"#utility.yul\":993:994   */\n      0x00\n        /* \"#utility.yul\":1018:1097   */\n      tag_81\n        /* \"#utility.yul\":1089:1096   */\n      dup5\n        /* \"#utility.yul\":1080:1086   */\n      dup3\n        /* \"#utility.yul\":1069:1078   */\n      dup6\n        /* \"#utility.yul\":1065:1087   */\n      add\n        /* \"#utility.yul\":1018:1097   */\n      tag_59\n      jump\t// in\n    tag_81:\n        /* \"#utility.yul\":1008:1097   */\n      swap2\n      pop\n        /* \"#utility.yul\":964:1107   */\n      pop\n        /* \"#utility.yul\":732:1114   */\n      swap3\n      swap2\n      pop\n      pop\n      jump\t// out\n        /* \"#utility.yul\":1120:1225   */\n    tag_60:\n        /* \"#utility.yul\":1186:1192   */\n      0x00\n        /* \"#utility.yul\":1214:1218   */\n      0x0a\n        /* \"#utility.yul\":1204:1218   */\n      swap1\n      pop\n        /* \"#utility.yul\":1120:1225   */\n      swap2\n      swap1\n      pop\n      jump\t// out\n        /* \"#utility.yul\":1231:1375   */\n    tag_61:\n        /* \"#utility.yul\":1329:1340   */\n      0x00\n        /* \"#utility.yul\":1366:1369   */\n      dup2\n        /* \"#utility.yul\":1351:1369   */\n      swap1\n      pop\n        /* \"#utility.yul\":1231:1375   */\n      swap3\n      swap2\n      pop\n      pop\n      jump\t// out\n        /* \"#utility.yul\":1381:1480   */\n    tag_62:\n        /* \"#utility.yul\":1447:1451   */\n      0x00\n        /* \"#utility.yul\":1470:1473   */\n      dup2\n        /* \"#utility.yul\":1462:1473   */\n      swap1\n      pop\n        /* \"#utility.yul\":1381:1480   */\n      swap2\n      swap1\n      pop\n      jump\t// out\n        /* \"#utility.yul\":1486:1563   */\n    tag_63:\n        /* \"#utility.yul\":1523:1530   */\n      0x00\n        /* \"#utility.yul\":1552:1557   */\n      dup2\n        /* \"#utility.yul\":1541:1557   */\n      swap1\n      pop\n        /* \"#utility.yul\":1486:1563   */\n      swap2\n      swap1\n      pop\n      jump\t// out\n        /* \"#utility.yul\":1569:1677   */\n    tag_64:\n        /* \"#utility.yul\":1646:1670   */\n      tag_87\n        /* \"#utility.yul\":1664:1669   */\n      dup2\n        /* \"#utility.yul\":1646:1670   */\n      tag_63\n      jump\t// in\n    tag_87:\n        /* \"#utility.yul\":1641:1644   */\n      dup3\n        /* \"#utility.yul\":1634:1671   */\n      mstore\n        /* \"#utility.yul\":1569:1677   */\n      pop\n      pop\n      jump\t// out\n        /* \"#utility.yul\":1683:1862   */\n    tag_65:\n        /* \"#utility.yul\":1752:1762   */\n      0x00\n        /* \"#utility.yul\":1773:1819   */\n      tag_89\n        /* \"#utility.yul\":1815:1818   */\n      dup4\n        /* \"#utility.yul\":1807:1813   */\n      dup4\n        /* \"#utility.yul\":1773:1819   */\n      tag_64\n      jump\t// in\n    tag_89:\n        /* \"#utility.yul\":1851:1855   */\n      0x20\n        /* \"#utility.yul\":1846:1849   */\n      dup4\n        /* \"#utility.yul\":1842:1856   */\n      add\n        /* \"#utility.yul\":1828:1856   */\n      swap1\n      pop\n        /* \"#utility.yul\":1683:1862   */\n      swap3\n      swap2\n      pop\n      pop\n      jump\t// out\n        /* \"#utility.yul\":1868:1980   */\n    tag_66:\n        /* \"#utility.yul\":1937:1941   */\n      0x00\n        /* \"#utility.yul\":1969:1973   */\n      0x20\n        /* \"#utility.yul\":1964:1967   */\n      dup3\n        /* \"#utility.yul\":1960:1974   */\n      add\n        /* \"#utility.yul\":1952:1974   */\n      swap1\n      pop\n        /* \"#utility.yul\":1868:1980   */\n      swap2\n      swap1\n      pop\n      jump\t// out\n        /* \"#utility.yul\":2020:2720   */\n    tag_67:\n        /* \"#utility.yul\":2158:2211   */\n      tag_92\n        /* \"#utility.yul\":2205:2210   */\n      dup2\n        /* \"#utility.yul\":2158:2211   */\n      tag_60\n      jump\t// in\n    tag_92:\n        /* \"#utility.yul\":2227:2312   */\n      tag_93\n        /* \"#utility.yul\":2305:2311   */\n      dup2\n        /* \"#utility.yul\":2300:2303   */\n      dup5\n        /* \"#utility.yul\":2227:2312   */\n      tag_61\n      jump\t// in\n    tag_93:\n        /* \"#utility.yul\":2220:2312   */\n      swap3\n      pop\n        /* \"#utility.yul\":2336:2391   */\n      tag_94\n        /* \"#utility.yul\":2385:2390   */\n      dup3\n        /* \"#utility.yul\":2336:2391   */\n      tag_62\n      jump\t// in\n    tag_94:\n        /* \"#utility.yul\":2414:2421   */\n      dup1\n        /* \"#utility.yul\":2445:2446   */\n      0x00\n        /* \"#utility.yul\":2430:2713   */\n    tag_95:\n        /* \"#utility.yul\":2455:2461   */\n      dup4\n        /* \"#utility.yul\":2452:2453   */\n      dup2\n        /* \"#utility.yul\":2449:2462   */\n      lt\n        /* \"#utility.yul\":2430:2713   */\n      iszero\n      tag_97\n      jumpi\n        /* \"#utility.yul\":2531:2537   */\n      dup2\n        /* \"#utility.yul\":2525:2538   */\n      mload\n        /* \"#utility.yul\":2558:2621   */\n      tag_98\n        /* \"#utility.yul\":2617:2620   */\n      dup8\n        /* \"#utility.yul\":2602:2615   */\n      dup3\n        /* \"#utility.yul\":2558:2621   */\n      tag_65\n      jump\t// in\n    tag_98:\n        /* \"#utility.yul\":2551:2621   */\n      swap7\n      pop\n        /* \"#utility.yul\":2644:2703   */\n      tag_99\n        /* \"#utility.yul\":2696:2702   */\n      dup4\n        /* \"#utility.yul\":2644:2703   */\n      tag_66\n      jump\t// in\n    tag_99:\n        /* \"#utility.yul\":2634:2703   */\n      swap3\n      pop\n        /* \"#utility.yul\":2490:2713   */\n      pop\n        /* \"#utility.yul\":2477:2478   */\n      0x01\n        /* \"#utility.yul\":2474:2475   */\n      dup2\n        /* \"#utility.yul\":2470:2479   */\n      add\n        /* \"#utility.yul\":2465:2479   */\n      swap1\n      pop\n        /* \"#utility.yul\":2430:2713   */\n      jump(tag_95)\n    tag_97:\n        /* \"#utility.yul\":2434:2448   */\n      pop\n        /* \"#utility.yul\":2134:2720   */\n      pop\n      pop\n      pop\n        /* \"#utility.yul\":2020:2720   */\n      pop\n      pop\n      jump\t// out\n        /* \"#utility.yul\":2726:3045   */\n    tag_9:\n        /* \"#utility.yul\":2867:2871   */\n      0x00\n        /* \"#utility.yul\":2905:2908   */\n      0x0140\n        /* \"#utility.yul\":2894:2903   */\n      dup3\n        /* \"#utility.yul\":2890:2909   */\n      add\n        /* \"#utility.yul\":2882:2909   */\n      swap1\n      pop\n        /* \"#utility.yul\":2919:3038   */\n      tag_101\n        /* \"#utility.yul\":3035:3036   */\n      0x00\n        /* \"#utility.yul\":3024:3033   */\n      dup4\n        /* \"#utility.yul\":3020:3037   */\n      add\n        /* \"#utility.yul\":3011:3017   */\n      dup5\n        /* \"#utility.yul\":2919:3038   */\n      tag_67\n      jump\t// in\n    tag_101:\n        /* \"#utility.yul\":2726:3045   */\n      swap3\n      swap2\n      pop\n      pop\n      jump\t// out\n        /* \"#utility.yul\":3051:3231   */\n    tag_68:\n        /* \"#utility.yul\":3099:3176   */\n      0x4e487b7100000000000000000000000000000000000000000000000000000000\n        /* \"#utility.yul\":3096:3097   */\n      0x00\n        /* \"#utility.yul\":3089:3177   */\n      mstore\n        /* \"#utility.yul\":3196:3200   */\n      0x11\n        /* \"#utility.yul\":3193:3194   */\n      0x04\n        /* \"#utility.yul\":3186:3201   */\n      mstore\n        /* \"#utility.yul\":3220:3224   */\n      0x24\n        /* \"#utility.yul\":3217:3218   */\n      0x00\n        /* \"#utility.yul\":3210:3225   */\n      revert\n        /* \"#utility.yul\":3237:3428   */\n    tag_18:\n        /* \"#utility.yul\":3277:3280   */\n      0x00\n        /* \"#utility.yul\":3296:3316   */\n      tag_104\n        /* \"#utility.yul\":3314:3315   */\n      dup3\n        /* \"#utility.yul\":3296:3316   */\n      tag_63\n      jump\t// in\n    tag_104:\n        /* \"#utility.yul\":3291:3316   */\n      swap2\n      pop\n        /* \"#utility.yul\":3330:3350   */\n      tag_105\n        /* \"#utility.yul\":3348:3349   */\n      dup4\n        /* \"#utility.yul\":3330:3350   */\n      tag_63\n      jump\t// in\n    tag_105:\n        /* \"#utility.yul\":3325:3350   */\n      swap3\n      pop\n        /* \"#utility.yul\":3373:3374   */\n      dup3\n        /* \"#utility.yul\":3370:3371   */\n      dup3\n        /* \"#utility.yul\":3366:3375   */\n      add\n        /* \"#utility.yul\":3359:3375   */\n      swap1\n      pop\n        /* \"#utility.yul\":3394:3397   */\n      dup1\n        /* \"#utility.yul\":3391:3392   */\n      dup3\n        /* \"#utility.yul\":3388:3398   */\n      gt\n        /* \"#utility.yul\":3385:3421   */\n      iszero\n      tag_106\n      jumpi\n        /* \"#utility.yul\":3401:3419   */\n      tag_107\n      tag_68\n      jump\t// in\n    tag_107:\n        /* \"#utility.yul\":3385:3421   */\n    tag_106:\n        /* \"#utility.yul\":3237:3428   */\n      swap3\n      swap2\n      pop\n      pop\n      jump\t// out\n        /* \"#utility.yul\":3434:3614   */\n    tag_69:\n        /* \"#utility.yul\":3482:3559   */\n      0x4e487b7100000000000000000000000000000000000000000000000000000000\n        /* \"#utility.yul\":3479:3480   */\n      0x00\n        /* \"#utility.yul\":3472:3560   */\n      mstore\n        /* \"#utility.yul\":3579:3583   */\n      0x12\n        /* \"#utility.yul\":3576:3577   */\n      0x04\n        /* \"#utility.yul\":3569:3584   */\n      mstore\n        /* \"#utility.yul\":3603:3607   */\n      0x24\n        /* \"#utility.yul\":3600:3601   */\n      0x00\n        /* \"#utility.yul\":3593:3608   */\n      revert\n        /* \"#utility.yul\":3620:3805   */\n    tag_20:\n        /* \"#utility.yul\":3660:3661   */\n      0x00\n        /* \"#utility.yul\":3677:3697   */\n      tag_110\n        /* \"#utility.yul\":3695:3696   */\n      dup3\n        /* \"#utility.yul\":3677:3697   */\n      tag_63\n      jump\t// in\n    tag_110:\n        /* \"#utility.yul\":3672:3697   */\n      swap2\n      pop\n        /* \"#utility.yul\":3711:3731   */\n      tag_111\n        /* \"#utility.yul\":3729:3730   */\n      dup4\n        /* \"#utility.yul\":3711:3731   */\n      tag_63\n      jump\t// in\n    tag_111:\n        /* \"#utility.yul\":3706:3731   */\n      swap3\n      pop\n        /* \"#utility.yul\":3750:3751   */\n      dup3\n        /* \"#utility.yul\":3740:3775   */\n      tag_112\n      jumpi\n        /* \"#utility.yul\":3755:3773   */\n      tag_113\n      tag_69\n      jump\t// in\n    tag_113:\n        /* \"#utility.yul\":3740:3775   */\n    tag_112:\n        /* \"#utility.yul\":3797:3798   */\n      dup3\n        /* \"#utility.yul\":3794:3795   */\n      dup3\n        /* \"#utility.yul\":3790:3799   */\n      div\n        /* \"#utility.yul\":3785:3799   */\n      swap1\n      pop\n        /* \"#utility.yul\":3620:3805   */\n      swap3\n      swap2\n      pop\n      pop\n      jump\t// out\n        /* \"#utility.yul\":3811:3991   */\n    tag_23:\n        /* \"#utility.yul\":3859:3936   */\n      0x4e487b7100000000000000000000000000000000000000000000000000000000\n        /* \"#utility.yul\":3856:3857   */\n      0x00\n        /* \"#utility.yul\":3849:3937   */\n      mstore\n        /* \"#utility.yul\":3956:3960   */\n      0x32\n        /* \"#utility.yul\":3953:3954   */\n      0x04\n        /* \"#utility.yul\":3946:3961   */\n      mstore\n        /* \"#utility.yul\":3980:3984   */\n      0x24\n        /* \"#utility.yul\":3977:3978   */\n      0x00\n        /* \"#utility.yul\":3970:3985   */\n      revert\n        /* \"#utility.yul\":3997:4230   */\n    tag_32:\n        /* \"#utility.yul\":4036:4039   */\n      0x00\n        /* \"#utility.yul\":4059:4083   */\n      tag_116\n        /* \"#utility.yul\":4077:4082   */\n      dup3\n        /* \"#utility.yul\":4059:4083   */\n      tag_63\n      jump\t// in\n    tag_116:\n        /* \"#utility.yul\":4050:4083   */\n      swap2\n      pop\n        /* \"#utility.yul\":4105:4171   */\n      0xffffffffffffffffffffffffffffffffffffffffffffffffffffffffffffffff\n        /* \"#utility.yul\":4098:4103   */\n      dup3\n        /* \"#utility.yul\":4095:4172   */\n      sub\n        /* \"#utility.yul\":4092:4195   */\n      tag_117\n      jumpi\n        /* \"#utility.yul\":4175:4193   */\n      tag_118\n      tag_68\n      jump\t// in\n    tag_118:\n        /* \"#utility.yul\":4092:4195   */\n    tag_117:\n        /* \"#utility.yul\":4222:4223   */\n      0x01\n        /* \"#utility.yul\":4215:4220   */\n      dup3\n        /* \"#utility.yul\":4211:4224   */\n      add\n        /* \"#utility.yul\":4204:4224   */\n      swap1\n      pop\n        /* \"#utility.yul\":3997:4230   */\n      swap2\n      swap1\n      pop\n      jump\t// out\n        /* \"#utility.yul\":4236:4407   */\n    tag_38:\n        /* \"#utility.yul\":4275:4278   */\n      0x00\n        /* \"#utility.yul\":4298:4322   */\n      tag_120\n        /* \"#utility.yul\":4316:4321   */\n      dup3\n        /* \"#utility.yul\":4298:4322   */\n      tag_63\n      jump\t// in\n    tag_120:\n        /* \"#utility.yul\":4289:4322   */\n      swap2\n      pop\n        /* \"#utility.yul\":4344:4348   */\n      0x00\n        /* \"#utility.yul\":4337:4342   */\n      dup3\n        /* \"#utility.yul\":4334:4349   */\n      sub\n        /* \"#utility.yul\":4331:4372   */\n      tag_121\n      jumpi\n        /* \"#utility.yul\":4352:4370   */\n      tag_122\n      tag_68\n      jump\t// in\n    tag_122:\n        /* \"#utility.yul\":4331:4372   */\n    tag_121:\n        /* \"#utility.yul\":4399:4400   */\n      0x01\n        /* \"#utility.yul\":4392:4397   */\n      dup3\n        /* \"#utility.yul\":4388:4401   */\n      sub\n        /* \"#utility.yul\":4381:4401   */\n      swap1\n      pop\n        /* \"#utility.yul\":4236:4407   */\n      swap2\n      swap1\n      pop\n      jump\t// out\n\n    auxdata: 0xa2646970667358221220fb44003b54713c95a0870a426140b63c300337310f32cf45a77da66d47f834b864736f6c63430008130033\n}\n",
				"bytecode": {
					"linkReferences": {},
					"object": "608060405234801561001057600080fd5b50610517806100206000396000f3fe608060405234801561001057600080fd5b506004361061002b5760003560e01c8063209b472e14610030575b600080fd5b61004a6004803603810190610045919061027f565b610060565b6040516100579190610362565b60405180910390f35b610068610230565b81600a806020026040519081016040528092919082600a60200280828437600081840152601f19601f82011690508083019250505050505090506100af81600060096100b4565b919050565b8082101561022b57600083600283856100cd91906103ad565b6100d79190610410565b600a81106100e8576100e7610441565b5b60200201519050600083905060008390505b5b828683600a811061010f5761010e610441565b5b6020020151101561012d57818061012590610470565b9250506100fb565b5b828682600a811061014257610141610441565b5b60200201511115610160578080610158906104b8565b91505061012e565b808210156101f1578581600a811061017b5761017a610441565b5b60200201518683600a811061019357610192610441565b5b60200201518784600a81106101ab576101aa610441565b5b602002018884600a81106101c2576101c1610441565b5b602002018281525082815250505081806101db90610470565b92505080806101e9906104b8565b9150506100fa565b80851015610205576102048686836100b4565b5b808061021090610470565b91505083811015610227576102268682866100b4565b5b5050505b505050565b604051806101400160405280600a90602082028036833780820191505090505090565b600080fd5b600080fd5b6000819050826020600a028201111561027957610278610258565b5b92915050565b6000610140828403121561029657610295610253565b5b60006102a48482850161025d565b91505092915050565b6000600a9050919050565b600081905092915050565b6000819050919050565b6000819050919050565b6102e0816102cd565b82525050565b60006102f283836102d7565b60208301905092915050565b6000602082019050919050565b610314816102ad565b61031e81846102b8565b9250610329826102c3565b8060005b8381101561035a57815161034187826102e6565b965061034c836102fe565b92505060018101905061032d565b505050505050565b600061014082019050610378600083018461030b565b92915050565b7f4e487b7100000000000000000000000000000000000000000000000000000000600052601160045260246000fd5b60006103b8826102cd565b91506103c3836102cd565b92508282019050808211156103db576103da61037e565b5b92915050565b7f4e487b7100000000000000000000000000000000000000000000000000000000600052601260045260246000fd5b600061041b826102cd565b9150610426836102cd565b925082610436576104356103e1565b5b828204905092915050565b7f4e487b7100000000000000000000000000000000000000000000000000000000600052603260045260246000fd5b600061047b826102cd565b91507fffffffffffffffffffffffffffffffffffffffffffffffffffffffffffffffff82036104ad576104ac61037e565b5b600182019050919050565b60006104c3826102cd565b9150600082036104d6576104d561037e565b5b60018203905091905056fea2646970667358221220fb44003b54713c95a0870a426140b63c300337310f32cf45a77da66d47f834b864736f6c63430008130033",
					"opcodes": "PUSH1 0x80 PUSH1 0x40 MSTORE CALLVALUE DUP1 ISZERO PUSH2 0x10 JUMPI PUSH1 0x0 DUP1 REVERT JUMPDEST POP PUSH2 0x517 DUP1 PUSH2 0x20 PUSH1 0x0 CODECOPY PUSH1 0x0 RETURN INVALID PUSH1 0x80 PUSH1 0x40 MSTORE CALLVALUE DUP1 ISZERO PUSH2 0x10 JUMPI PUSH1 0x0 DUP1 REVERT JUMPDEST POP PUSH1 0x4 CALLDATASIZE LT PUSH2 0x2B JUMPI PUSH1 0x0 CALLDATALOAD PUSH1 0xE0 SHR DUP1 PUSH4 0x209B472E EQ PUSH2 0x30 JUMPI JUMPDEST PUSH1 0x0 DUP1 REVERT JUMPDEST PUSH2 0x4A PUSH1 0x4 DUP1 CALLDATASIZE SUB DUP2 ADD SWAP1 PUSH2 0x45 SWAP2 SWAP1 PUSH2 0x27F JUMP JUMPDEST PUSH2 0x60 JUMP JUMPDEST PUSH1 0x40 MLOAD PUSH2 0x57 SWAP2 SWAP1 PUSH2 0x362 JUMP JUMPDEST PUSH1 0x40 MLOAD DUP1 SWAP2 SUB SWAP1 RETURN JUMPDEST PUSH2 0x68 PUSH2 0x230 JUMP JUMPDEST DUP2 PUSH1 0xA DUP1 PUSH1 0x20 MUL PUSH1 0x40 MLOAD SWAP1 DUP2 ADD PUSH1 0x40 MSTORE DUP1 SWAP3 SWAP2 SWAP1 DUP3 PUSH1 0xA PUSH1 0x20 MUL DUP1 DUP3 DUP5 CALLDATACOPY PUSH1 0x0 DUP2 DUP5 ADD MSTORE PUSH1 0x1F NOT PUSH1 0x1F DUP3 ADD AND SWAP1 POP DUP1 DUP4 ADD SWAP3 POP POP POP POP POP POP SWAP1 POP PUSH2 0xAF DUP2 PUSH1 0x0 PUSH1 0x9 PUSH2 0xB4 JUMP JUMPDEST SWAP2 SWAP1 POP JUMP JUMPDEST DUP1 DUP3 LT ISZERO PUSH2 0x22B JUMPI PUSH1 0x0 DUP4 PUSH1 0x2 DUP4 DUP6 PUSH2 0xCD SWAP2 SWAP1 PUSH2 0x3AD JUMP JUMPDEST PUSH2 0xD7 SWAP2 SWAP1 PUSH2 0x410 JUMP JUMPDEST PUSH1 0xA DUP2 LT PUSH2 0xE8 JUMPI PUSH2 0xE7 PUSH2 0x441 JUMP JUMPDEST JUMPDEST PUSH1 0x20 MUL ADD MLOAD SWAP1 POP PUSH1 0x0 DUP4 SWAP1 POP PUSH1 0x0 DUP4 SWAP1 POP JUMPDEST JUMPDEST DUP3 DUP7 DUP4 PUSH1 0xA DUP2 LT PUSH2 0x10F JUMPI PUSH2 0x10E PUSH2 0x441 JUMP JUMPDEST JUMPDEST PUSH1 0x20 MUL ADD MLOAD LT ISZERO PUSH2 0x12D JUMPI DUP2 DUP1 PUSH2 0x125 SWAP1 PUSH2 0x470 JUMP JUMPDEST SWAP3 POP POP PUSH2 0xFB JUMP JUMPDEST JUMPDEST DUP3 DUP7 DUP3 PUSH1 0xA DUP2 LT PUSH2 0x142 JUMPI PUSH2 0x141 PUSH2 0x441 JUMP JUMPDEST JUMPDEST PUSH1 0x20 MUL ADD MLOAD GT ISZERO PUSH2 0x160 JUMPI DUP1 DUP1 PUSH2 0x158 SWAP1 PUSH2 0x4B8 JUMP JUMPDEST SWAP2 POP POP PUSH2 0x12E JUMP JUMPDEST DUP1 DUP3 LT ISZERO PUSH2 0x1F1 JUMPI DUP6 DUP2 PUSH1 0xA DUP2 LT PUSH2 0x17B JUMPI PUSH2 0x17A PUSH2 0x441 JUMP JUMPDEST JUMPDEST PUSH1 0x20 MUL ADD MLOAD DUP7 DUP4 PUSH1 0xA DUP2 LT PUSH2 0x193 JUMPI PUSH2 0x192 PUSH2 0x441 JUMP JUMPDEST JUMPDEST PUSH1 0x20 MUL ADD MLOAD DUP8 DUP5 PUSH1 0xA DUP2 LT PUSH2 0x1AB JUMPI PUSH2 0x1AA PUSH2 0x441 JUMP JUMPDEST JUMPDEST PUSH1 0x20 MUL ADD DUP9 DUP5 PUSH1 0xA DUP2 LT PUSH2 0x1C2 JUMPI PUSH2 0x1C1 PUSH2 0x441 JUMP JUMPDEST JUMPDEST PUSH1 0x20 MUL ADD DUP3 DUP2 MSTORE POP DUP3 DUP2 MSTORE POP POP POP DUP2 DUP1 PUSH2 0x1DB SWAP1 PUSH2 0x470 JUMP JUMPDEST SWAP3 POP POP DUP1 DUP1 PUSH2 0x1E9 SWAP1 PUSH2 0x4B8 JUMP JUMPDEST SWAP2 POP POP PUSH2 0xFA JUMP JUMPDEST DUP1 DUP6 LT ISZERO PUSH2 0x205 JUMPI PUSH2 0x204 DUP7 DUP7 DUP4 PUSH2 0xB4 JUMP JUMPDEST JUMPDEST DUP1 DUP1 PUSH2 0x210 SWAP1 PUSH2 0x470 JUMP JUMPDEST SWAP2 POP POP DUP4 DUP2 LT ISZERO PUSH2 0x227 JUMPI PUSH2 0x226 DUP7 DUP3 DUP7 PUSH2 0xB4 JUMP JUMPDEST JUMPDEST POP POP POP JUMPDEST POP POP POP JUMP JUMPDEST PUSH1 0x40 MLOAD DUP1 PUSH2 0x140 ADD PUSH1 0x40 MSTORE DUP1 PUSH1 0xA SWAP1 PUSH1 0x20 DUP3 MUL DUP1 CALLDATASIZE DUP4 CALLDATACOPY DUP1 DUP3 ADD SWAP2 POP POP SWAP1 POP POP SWAP1 JUMP JUMPDEST PUSH1 0x0 DUP1 REVERT JUMPDEST PUSH1 0x0 DUP1 REVERT JUMPDEST PUSH1 0x0 DUP2 SWAP1 POP DUP3 PUSH1 0x20 PUSH1 0xA MUL DUP3 ADD GT ISZERO PUSH2 0x279 JUMPI PUSH2 0x278 PUSH2 0x258 JUMP JUMPDEST JUMPDEST SWAP3 SWAP2 POP POP JUMP JUMPDEST PUSH1 0x0 PUSH2 0x140 DUP3 DUP5 SUB SLT ISZERO PUSH2 0x296 JUMPI PUSH2 0x295 PUSH2 0x253 JUMP JUMPDEST JUMPDEST PUSH1 0x0 PUSH2 0x2A4 DUP5 DUP3 DUP6 ADD PUSH2 0x25D JUMP JUMPDEST SWAP2 POP POP SWAP3 SWAP2 POP POP JUMP JUMPDEST PUSH1 0x0 PUSH1 0xA SWAP1 POP SWAP2 SWAP1 POP JUMP JUMPDEST PUSH1 0x0 DUP2 SWAP1 POP SWAP3 SWAP2 POP POP JUMP JUMPDEST PUSH1 0x0 DUP2 SWAP1 POP SWAP2 SWAP1 POP JUMP JUMPDEST PUSH1 0x0 DUP2 SWAP1 POP SWAP2 SWAP1 POP JUMP JUMPDEST PUSH2 0x2E0 DUP2 PUSH2 0x2CD JUMP JUMPDEST DUP3 MSTORE POP POP JUMP JUMPDEST PUSH1 0x0 PUSH2 0x2F2 DUP4 DUP4 PUSH2 0x2D7 JUMP JUMPDEST PUSH1 0x20 DUP4 ADD SWAP1 POP SWAP3 SWAP2 POP POP JUMP JUMPDEST PUSH1 0x0 PUSH1 0x20 DUP3 ADD SWAP1 POP SWAP2 SWAP1 POP JUMP JUMPDEST PUSH2 0x314 DUP2 PUSH2 0x2AD JUMP JUMPDEST PUSH2 0x31E DUP2 DUP5 PUSH2 0x2B8 JUMP JUMPDEST SWAP3 POP PUSH2 0x329 DUP3 PUSH2 0x2C3 JUMP JUMPDEST DUP1 PUSH1 0x0 JUMPDEST DUP4 DUP2 LT ISZERO PUSH2 0x35A JUMPI DUP2 MLOAD PUSH2 0x341 DUP8 DUP3 PUSH2 0x2E6 JUMP JUMPDEST SWAP7 POP PUSH2 0x34C DUP4 PUSH2 0x2FE JUMP JUMPDEST SWAP3 POP POP PUSH1 0x1 DUP2 ADD SWAP1 POP PUSH2 0x32D JUMP JUMPDEST POP POP POP POP POP POP JUMP JUMPDEST PUSH1 0x0 PUSH2 0x140 DUP3 ADD SWAP1 POP PUSH2 0x378 PUSH1 0x0 DUP4 ADD DUP5 PUSH2 0x30B JUMP JUMPDEST SWAP3 SWAP2 POP POP JUMP JUMPDEST PUSH32 0x4E487B7100000000000000000000000000000000000000000000000000000000 PUSH1 0x0 MSTORE PUSH1 0x11 PUSH1 0x4 MSTORE PUSH1 0x24 PUSH1 0x0 REVERT JUMPDEST PUSH1 0x0 PUSH2 0x3B8 DUP3 PUSH2 0x2CD JUMP JUMPDEST SWAP2 POP PUSH2 0x3C3 DUP4 PUSH2 0x2CD JUMP JUMPDEST SWAP3 POP DUP3 DUP3 ADD SWAP1 POP DUP1 DUP3 GT ISZERO PUSH2 0x3DB JUMPI PUSH2 0x3DA PUSH2 0x37E JUMP JUMPDEST JUMPDEST SWAP3 SWAP2 POP POP JUMP JUMPDEST PUSH32 0x4E487B7100000000000000000000000000000000000000000000000000000000 PUSH1 0x0 MSTORE PUSH1 0x12 PUSH1 0x4 MSTORE PUSH1 0x24 PUSH1 0x0 REVERT JUMPDEST PUSH1 0x0 PUSH2 0x41B DUP3 PUSH2 0x2CD JUMP JUMPDEST SWAP2 POP PUSH2 0x426 DUP4 PUSH2 0x2CD JUMP JUMPDEST SWAP3 POP DUP3 PUSH2 0x436 JUMPI PUSH2 0x435 PUSH2 0x3E1 JUMP JUMPDEST JUMPDEST DUP3 DUP3 DIV SWAP1 POP SWAP3 SWAP2 POP POP JUMP JUMPDEST PUSH32 0x4E487B7100000000000000000000000000000000000000000000000000000000 PUSH1 0x0 MSTORE PUSH1 0x32 PUSH1 0x4 MSTORE PUSH1 0x24 PUSH1 0x0 REVERT JUMPDEST PUSH1 0x0 PUSH2 0x47B DUP3 PUSH2 0x2CD JUMP JUMPDEST SWAP2 POP PUSH32 0xFFFFFFFFFFFFFFFFFFFFFFFFFFFFFFFFFFFFFFFFFFFFFFFFFFFFFFFFFFFFFFFF DUP3 SUB PUSH2 0x4AD JUMPI PUSH2 0x4AC PUSH2 0x37E JUMP JUMPDEST JUMPDEST PUSH1 0x1 DUP3 ADD SWAP1 POP SWAP2 SWAP1 POP JUMP JUMPDEST PUSH1 0x0 PUSH2 0x4C3 DUP3 PUSH2 0x2CD JUMP JUMPDEST SWAP2 POP PUSH1 0x0 DUP3 SUB PUSH2 0x4D6 JUMPI PUSH2 0x4D5 PUSH2 0x37E JUMP JUMPDEST JUMPDEST PUSH1 0x1 DUP3 SUB SWAP1 POP SWAP2 SWAP1 POP JUMP INVALID LOG2 PUSH5 0x6970667358 0x22 SLT KECCAK256 0xFB PREVRANDAO STOP EXTCODESIZE SLOAD PUSH18 0x3C95A0870A426140B63C300337310F32CF45 0xA7 PUSH30 0xA66D47F834B864736F6C6343000813003300000000000000000000000000 "
				},
				"gasEstimates": {
					"creation": {
						"codeDepositCost": "260600",
						"executionCost": "300",
						"totalCost": "260900"
					},
					"external": {
						"solution(uint256[10])": "infinite"
					},
					"internal": {
						"quickPart(uint256[10] memory,uint256,uint256)": "infinite"
					}
				},
				"methodIdentifiers": {
					"solution(uint256[10])": "209b472e"
				}
			},
			"storageLayout": {
				"storage": [],
				"types": null
			},
			"userdoc": {
				"kind": "user",
				"methods": {},
				"version": 1
			}
		}
	}
}