{
	"data": {
		"bytecode": {
			"linkReferences": {},
			"object": "608060405234801561001057600080fd5b50610548806100206000396000f3fe608060405234801561001057600080fd5b506004361061002b5760003560e01c8063209b472e14610030575b600080fd5b61004a6004803603810190610045919061031a565b610060565b60405161005791906103f3565b60405180910390f35b61006861016b565b61007182610079565b819050919050565b600080600191505b600a8210156101665760008383600a811061009f5761009e61040f565b5b602002015190508291505b600182101580156100dd5750836001836100c4919061046d565b600a81106100d5576100d461040f565b5b602002015181105b1561013557836001836100f0919061046d565b600a81106101015761010061040f565b5b60200201518483600a81106101195761011861040f565b5b602002018181525050818061012d906104a1565b9250506100aa565b808483600a81106101495761014861040f565b5b60200201818152505050818061015e906104ca565b925050610081565b505050565b604051806101400160405280600a90602082028036833780820191505090505090565b6000604051905090565b600080fd5b600080fd5b6000601f19601f8301169050919050565b7f4e487b7100000000000000000000000000000000000000000000000000000000600052604160045260246000fd5b6101eb826101a2565b810181811067ffffffffffffffff8211171561020a576102096101b3565b5b80604052505050565b600061021d61018e565b905061022982826101e2565b919050565b600067ffffffffffffffff821115610249576102486101b3565b5b602082029050919050565b600080fd5b6000819050919050565b61026c81610259565b811461027757600080fd5b50565b60008135905061028981610263565b92915050565b60006102a261029d8461022e565b610213565b905080602084028301858111156102bc576102bb610254565b5b835b818110156102e557806102d1888261027a565b8452602084019350506020810190506102be565b5050509392505050565b600082601f8301126103045761030361019d565b5b600a61031184828561028f565b91505092915050565b6000610140828403121561033157610330610198565b5b600061033f848285016102ef565b91505092915050565b6000600a9050919050565b600081905092915050565b6000819050919050565b61037181610259565b82525050565b60006103838383610368565b60208301905092915050565b6000602082019050919050565b6103a581610348565b6103af8184610353565b92506103ba8261035e565b8060005b838110156103eb5781516103d28782610377565b96506103dd8361038f565b9250506001810190506103be565b505050505050565b600061014082019050610409600083018461039c565b92915050565b7f4e487b7100000000000000000000000000000000000000000000000000000000600052603260045260246000fd5b7f4e487b7100000000000000000000000000000000000000000000000000000000600052601160045260246000fd5b600061047882610259565b915061048383610259565b925082820390508181111561049b5761049a61043e565b5b92915050565b60006104ac82610259565b9150600082036104bf576104be61043e565b5b600182039050919050565b60006104d582610259565b91507fffffffffffffffffffffffffffffffffffffffffffffffffffffffffffffffff82036105075761050661043e565b5b60018201905091905056fea26469706673582212204d57e7617ec0704f5835cd99b8d38a9eb6b7be548d3fa35a98c45b4accee09d364736f6c63430008130033",
			"opcodes": "PUSH1 0x80 PUSH1 0x40 MSTORE CALLVALUE DUP1 ISZERO PUSH2 0x10 JUMPI PUSH1 0x0 DUP1 REVERT JUMPDEST POP PUSH2 0x548 DUP1 PUSH2 0x20 PUSH1 0x0 CODECOPY PUSH1 0x0 RETURN INVALID PUSH1 0x80 PUSH1 0x40 MSTORE CALLVALUE DUP1 ISZERO PUSH2 0x10 JUMPI PUSH1 0x0 DUP1 REVERT JUMPDEST POP PUSH1 0x4 CALLDATASIZE LT PUSH2 0x2B JUMPI PUSH1 0x0 CALLDATALOAD PUSH1 0xE0 SHR DUP1 PUSH4 0x209B472E EQ PUSH2 0x30 JUMPI JUMPDEST PUSH1 0x0 DUP1 REVERT JUMPDEST PUSH2 0x4A PUSH1 0x4 DUP1 CALLDATASIZE SUB DUP2 ADD SWAP1 PUSH2 0x45 SWAP2 SWAP1 PUSH2 0x31A JUMP JUMPDEST PUSH2 0x60 JUMP JUMPDEST PUSH1 0x40 MLOAD PUSH2 0x57 SWAP2 SWAP1 PUSH2 0x3F3 JUMP JUMPDEST PUSH1 0x40 MLOAD DUP1 SWAP2 SUB SWAP1 RETURN JUMPDEST PUSH2 0x68 PUSH2 0x16B JUMP JUMPDEST PUSH2 0x71 DUP3 PUSH2 0x79 JUMP JUMPDEST DUP2 SWAP1 POP SWAP2 SWAP1 POP JUMP JUMPDEST PUSH1 0x0 DUP1 PUSH1 0x1 SWAP2 POP JUMPDEST PUSH1 0xA DUP3 LT ISZERO PUSH2 0x166 JUMPI PUSH1 0x0 DUP4 DUP4 PUSH1 0xA DUP2 LT PUSH2 0x9F JUMPI PUSH2 0x9E PUSH2 0x40F JUMP JUMPDEST JUMPDEST PUSH1 0x20 MUL ADD MLOAD SWAP1 POP DUP3 SWAP2 POP JUMPDEST PUSH1 0x1 DUP3 LT ISZERO DUP1 ISZERO PUSH2 0xDD JUMPI POP DUP4 PUSH1 0x1 DUP4 PUSH2 0xC4 SWAP2 SWAP1 PUSH2 0x46D JUMP JUMPDEST PUSH1 0xA DUP2 LT PUSH2 0xD5 JUMPI PUSH2 0xD4 PUSH2 0x40F JUMP JUMPDEST JUMPDEST PUSH1 0x20 MUL ADD MLOAD DUP2 LT JUMPDEST ISZERO PUSH2 0x135 JUMPI DUP4 PUSH1 0x1 DUP4 PUSH2 0xF0 SWAP2 SWAP1 PUSH2 0x46D JUMP JUMPDEST PUSH1 0xA DUP2 LT PUSH2 0x101 JUMPI PUSH2 0x100 PUSH2 0x40F JUMP JUMPDEST JUMPDEST PUSH1 0x20 MUL ADD MLOAD DUP5 DUP4 PUSH1 0xA DUP2 LT PUSH2 0x119 JUMPI PUSH2 0x118 PUSH2 0x40F JUMP JUMPDEST JUMPDEST PUSH1 0x20 MUL ADD DUP2 DUP2 MSTORE POP POP DUP2 DUP1 PUSH2 0x12D SWAP1 PUSH2 0x4A1 JUMP JUMPDEST SWAP3 POP POP PUSH2 0xAA JUMP JUMPDEST DUP1 DUP5 DUP4 PUSH1 0xA DUP2 LT PUSH2 0x149 JUMPI PUSH2 0x148 PUSH2 0x40F JUMP JUMPDEST JUMPDEST PUSH1 0x20 MUL ADD DUP2 DUP2 MSTORE POP POP POP DUP2 DUP1 PUSH2 0x15E SWAP1 PUSH2 0x4CA JUMP JUMPDEST SWAP3 POP POP PUSH2 0x81 JUMP JUMPDEST POP POP POP JUMP JUMPDEST PUSH1 0x40 MLOAD DUP1 PUSH2 0x140 ADD PUSH1 0x40 MSTORE DUP1 PUSH1 0xA SWAP1 PUSH1 0x20 DUP3 MUL DUP1 CALLDATASIZE DUP4 CALLDATACOPY DUP1 DUP3 ADD SWAP2 POP POP SWAP1 POP POP SWAP1 JUMP JUMPDEST PUSH1 0x0 PUSH1 0x40 MLOAD SWAP1 POP SWAP1 JUMP JUMPDEST PUSH1 0x0 DUP1 REVERT JUMPDEST PUSH1 0x0 DUP1 REVERT JUMPDEST PUSH1 0x0 PUSH1 0x1F NOT PUSH1 0x1F DUP4 ADD AND SWAP1 POP SWAP2 SWAP1 POP JUMP JUMPDEST PUSH32 0x4E487B7100000000000000000000000000000000000000000000000000000000 PUSH1 0x0 MSTORE PUSH1 0x41 PUSH1 0x4 MSTORE PUSH1 0x24 PUSH1 0x0 REVERT JUMPDEST PUSH2 0x1EB DUP3 PUSH2 0x1A2 JUMP JUMPDEST DUP2 ADD DUP2 DUP2 LT PUSH8 0xFFFFFFFFFFFFFFFF DUP3 GT OR ISZERO PUSH2 0x20A JUMPI PUSH2 0x209 PUSH2 0x1B3 JUMP JUMPDEST JUMPDEST DUP1 PUSH1 0x40 MSTORE POP POP POP JUMP JUMPDEST PUSH1 0x0 PUSH2 0x21D PUSH2 0x18E JUMP JUMPDEST SWAP1 POP PUSH2 0x229 DUP3 DUP3 PUSH2 0x1E2 JUMP JUMPDEST SWAP2 SWAP1 POP JUMP JUMPDEST PUSH1 0x0 PUSH8 0xFFFFFFFFFFFFFFFF DUP3 GT ISZERO PUSH2 0x249 JUMPI PUSH2 0x248 PUSH2 0x1B3 JUMP JUMPDEST JUMPDEST PUSH1 0x20 DUP3 MUL SWAP1 POP SWAP2 SWAP1 POP JUMP JUMPDEST PUSH1 0x0 DUP1 REVERT JUMPDEST PUSH1 0x0 DUP2 SWAP1 POP SWAP2 SWAP1 POP JUMP JUMPDEST PUSH2 0x26C DUP2 PUSH2 0x259 JUMP JUMPDEST DUP2 EQ PUSH2 0x277 JUMPI PUSH1 0x0 DUP1 REVERT JUMPDEST POP JUMP JUMPDEST PUSH1 0x0 DUP2 CALLDATALOAD SWAP1 POP PUSH2 0x289 DUP2 PUSH2 0x263 JUMP JUMPDEST SWAP3 SWAP2 POP POP JUMP JUMPDEST PUSH1 0x0 PUSH2 0x2A2 PUSH2 0x29D DUP5 PUSH2 0x22E JUMP JUMPDEST PUSH2 0x213 JUMP JUMPDEST SWAP1 POP DUP1 PUSH1 0x20 DUP5 MUL DUP4 ADD DUP6 DUP2 GT ISZERO PUSH2 0x2BC JUMPI PUSH2 0x2BB PUSH2 0x254 JUMP JUMPDEST JUMPDEST DUP4 JUMPDEST DUP2 DUP2 LT ISZERO PUSH2 0x2E5 JUMPI DUP1 PUSH2 0x2D1 DUP9 DUP3 PUSH2 0x27A JUMP JUMPDEST DUP5 MSTORE PUSH1 0x20 DUP5 ADD SWAP4 POP POP PUSH1 0x20 DUP2 ADD SWAP1 POP PUSH2 0x2BE JUMP JUMPDEST POP POP POP SWAP4 SWAP3 POP POP POP JUMP JUMPDEST PUSH1 0x0 DUP3 PUSH1 0x1F DUP4 ADD SLT PUSH2 0x304 JUMPI PUSH2 0x303 PUSH2 0x19D JUMP JUMPDEST JUMPDEST PUSH1 0xA PUSH2 0x311 DUP5 DUP3 DUP6 PUSH2 0x28F JUMP JUMPDEST SWAP2 POP POP SWAP3 SWAP2 POP POP JUMP JUMPDEST PUSH1 0x0 PUSH2 0x140 DUP3 DUP5 SUB SLT ISZERO PUSH2 0x331 JUMPI PUSH2 0x330 PUSH2 0x198 JUMP JUMPDEST JUMPDEST PUSH1 0x0 PUSH2 0x33F DUP5 DUP3 DUP6 ADD PUSH2 0x2EF JUMP JUMPDEST SWAP2 POP POP SWAP3 SWAP2 POP POP JUMP JUMPDEST PUSH1 0x0 PUSH1 0xA SWAP1 POP SWAP2 SWAP1 POP JUMP JUMPDEST PUSH1 0x0 DUP2 SWAP1 POP SWAP3 SWAP2 POP POP JUMP JUMPDEST PUSH1 0x0 DUP2 SWAP1 POP SWAP2 SWAP1 POP JUMP JUMPDEST PUSH2 0x371 DUP2 PUSH2 0x259 JUMP JUMPDEST DUP3 MSTORE POP POP JUMP JUMPDEST PUSH1 0x0 PUSH2 0x383 DUP4 DUP4 PUSH2 0x368 JUMP JUMPDEST PUSH1 0x20 DUP4 ADD SWAP1 POP SWAP3 SWAP2 POP POP JUMP JUMPDEST PUSH1 0x0 PUSH1 0x20 DUP3 ADD SWAP1 POP SWAP2 SWAP1 POP JUMP JUMPDEST PUSH2 0x3A5 DUP2 PUSH2 0x348 JUMP JUMPDEST PUSH2 0x3AF DUP2 DUP5 PUSH2 0x353 JUMP JUMPDEST SWAP3 POP PUSH2 0x3BA DUP3 PUSH2 0x35E JUMP JUMPDEST DUP1 PUSH1 0x0 JUMPDEST DUP4 DUP2 LT ISZERO PUSH2 0x3EB JUMPI DUP2 MLOAD PUSH2 0x3D2 DUP8 DUP3 PUSH2 0x377 JUMP JUMPDEST SWAP7 POP PUSH2 0x3DD DUP4 PUSH2 0x38F JUMP JUMPDEST SWAP3 POP POP PUSH1 0x1 DUP2 ADD SWAP1 POP PUSH2 0x3BE JUMP JUMPDEST POP POP POP POP POP POP JUMP JUMPDEST PUSH1 0x0 PUSH2 0x140 DUP3 ADD SWAP1 POP PUSH2 0x409 PUSH1 0x0 DUP4 ADD DUP5 PUSH2 0x39C JUMP JUMPDEST SWAP3 SWAP2 POP POP JUMP JUMPDEST PUSH32 0x4E487B7100000000000000000000000000000000000000000000000000000000 PUSH1 0x0 MSTORE PUSH1 0x32 PUSH1 0x4 MSTORE PUSH1 0x24 PUSH1 0x0 REVERT JUMPDEST PUSH32 0x4E487B7100000000000000000000000000000000000000000000000000000000 PUSH1 0x0 MSTORE PUSH1 0x11 PUSH1 0x4 MSTORE PUSH1 0x24 PUSH1 0x0 REVERT JUMPDEST PUSH1 0x0 PUSH2 0x478 DUP3 PUSH2 0x259 JUMP JUMPDEST SWAP2 POP PUSH2 0x483 DUP4 PUSH2 0x259 JUMP JUMPDEST SWAP3 POP DUP3 DUP3 SUB SWAP1 POP DUP2 DUP2 GT ISZERO PUSH2 0x49B JUMPI PUSH2 0x49A PUSH2 0x43E JUMP JUMPDEST JUMPDEST SWAP3 SWAP2 POP POP JUMP JUMPDEST PUSH1 0x0 PUSH2 0x4AC DUP3 PUSH2 0x259 JUMP JUMPDEST SWAP2 POP PUSH1 0x0 DUP3 SUB PUSH2 0x4BF JUMPI PUSH2 0x4BE PUSH2 0x43E JUMP JUMPDEST JUMPDEST PUSH1 0x1 DUP3 SUB SWAP1 POP SWAP2 SWAP1 POP JUMP JUMPDEST PUSH1 0x0 PUSH2 0x4D5 DUP3 PUSH2 0x259 JUMP JUMPDEST SWAP2 POP PUSH32 0xFFFFFFFFFFFFFFFFFFFFFFFFFFFFFFFFFFFFFFFFFFFFFFFFFFFFFFFFFFFFFFFF DUP3 SUB PUSH2 0x507 JUMPI PUSH2 0x506 PUSH2 0x43E JUMP JUMPDEST JUMPDEST PUSH1 0x1 DUP3 ADD SWAP1 POP SWAP2 SWAP1 POP JUMP INVALID LOG2 PUSH5 0x6970667358 0x22 SLT KECCAK256 0x4D JUMPI 0xE7 PUSH2 0x7EC0 PUSH17 0x4F5835CD99B8D38A9EB6B7BE548D3FA35A SWAP9 0xC4 JUMPDEST 0x4A 0xCC 0xEE MULMOD 0xD3 PUSH5 0x736F6C6343 STOP ADDMOD SGT STOP CALLER "
		},
		"gasEstimates": {
			"creation": {
				"codeDepositCost": "270400",
				"executionCost": "312",
				"totalCost": "270712"
			},
			"external": {
				"solution(uint256[10])": "infinite"
			},
			"internal": {
				"insertionSort(uint256[10] memory)": "infinite"
			}
		},
		"methodIdentifiers": {
			"solution(uint256[10])": "209b472e"
		}
	},
	"abi": [
		{
			"inputs": [
				{
					"internalType": "uint256[10]",
					"name": "array",
					"type": "uint256[10]"
				}
			],
			"name": "solution",
			"outputs": [
				{
					"internalType": "uint256[10]",
					"name": "",
					"type": "uint256[10]"
				}
			],
			"stateMutability": "pure",
			"type": "function"
		}
	]
}