{
	"data": {
		"bytecode": {
			"linkReferences": {},
			"object": "608060405234801561001057600080fd5b506105da806100206000396000f3fe608060405234801561001057600080fd5b506004361061002b5760003560e01c80635f3fa56b14610030575b600080fd5b61004a60048036038101906100459190610365565b610060565b60405161005791906104f7565b60405180910390f35b6100686102ea565b8160006002811061007c5761007b610512565b5b6040020160006002811061009357610092610512565b5b6020020135836000600281106100ac576100ab610512565b5b604002016000600281106100c3576100c2610512565b5b60200201356100d29190610570565b816000600281106100e6576100e5610512565b5b60200201516000600281106100fe576100fd610512565b5b6020020181815250508160006002811061011b5761011a610512565b5b6040020160016002811061013257610131610512565b5b60200201358360006002811061014b5761014a610512565b5b6040020160016002811061016257610161610512565b5b60200201356101719190610570565b8160006002811061018557610184610512565b5b602002015160016002811061019d5761019c610512565b5b602002018181525050816001600281106101ba576101b9610512565b5b604002016000600281106101d1576101d0610512565b5b6020020135836001600281106101ea576101e9610512565b5b6040020160006002811061020157610200610512565b5b60200201356102109190610570565b8160016002811061022457610223610512565b5b602002015160006002811061023c5761023b610512565b5b6020020181815250508160016002811061025957610258610512565b5b604002016001600281106102705761026f610512565b5b60200201358360016002811061028957610288610512565b5b604002016001600281106102a05761029f610512565b5b60200201356102af9190610570565b816001600281106102c3576102c2610512565b5b60200201516001600281106102db576102da610512565b5b60200201818152505092915050565b60405180604001604052806002905b610301610317565b8152602001906001900390816102f95790505090565b6040518060400160405280600290602082028036833780820191505090505090565b600080fd5b600080fd5b60008190508260406002028201111561035f5761035e61033e565b5b92915050565b600080610100838503121561037d5761037c610339565b5b600061038b85828601610343565b925050608061039c85828601610343565b9150509250929050565b600060029050919050565b600081905092915050565b6000819050919050565b600060029050919050565b600081905092915050565b6000819050919050565b6000819050919050565b6103f9816103e6565b82525050565b600061040b83836103f0565b60208301905092915050565b6000602082019050919050565b61042d816103c6565b61043781846103d1565b9250610442826103dc565b8060005b8381101561047357815161045a87826103ff565b965061046583610417565b925050600181019050610446565b505050505050565b60006104878383610424565b60408301905092915050565b6000602082019050919050565b6104a9816103a6565b6104b381846103b1565b92506104be826103bc565b8060005b838110156104ef5781516104d6878261047b565b96506104e183610493565b9250506001810190506104c2565b505050505050565b600060808201905061050c60008301846104a0565b92915050565b7f4e487b7100000000000000000000000000000000000000000000000000000000600052603260045260246000fd5b7f4e487b7100000000000000000000000000000000000000000000000000000000600052601160045260246000fd5b600061057b826103e6565b9150610586836103e6565b925082820190508082111561059e5761059d610541565b5b9291505056fea26469706673582212200b3e0c129b9f416661cc506ed1b52b026dbc818d3f2c7242dc470ed060cca08364736f6c63430008130033",
			"opcodes": "PUSH1 0x80 PUSH1 0x40 MSTORE CALLVALUE DUP1 ISZERO PUSH2 0x10 JUMPI PUSH1 0x0 DUP1 REVERT JUMPDEST POP PUSH2 0x5DA DUP1 PUSH2 0x20 PUSH1 0x0 CODECOPY PUSH1 0x0 RETURN INVALID PUSH1 0x80 PUSH1 0x40 MSTORE CALLVALUE DUP1 ISZERO PUSH2 0x10 JUMPI PUSH1 0x0 DUP1 REVERT JUMPDEST POP PUSH1 0x4 CALLDATASIZE LT PUSH2 0x2B JUMPI PUSH1 0x0 CALLDATALOAD PUSH1 0xE0 SHR DUP1 PUSH4 0x5F3FA56B EQ PUSH2 0x30 JUMPI JUMPDEST PUSH1 0x0 DUP1 REVERT JUMPDEST PUSH2 0x4A PUSH1 0x4 DUP1 CALLDATASIZE SUB DUP2 ADD SWAP1 PUSH2 0x45 SWAP2 SWAP1 PUSH2 0x365 JUMP JUMPDEST PUSH2 0x60 JUMP JUMPDEST PUSH1 0x40 MLOAD PUSH2 0x57 SWAP2 SWAP1 PUSH2 0x4F7 JUMP JUMPDEST PUSH1 0x40 MLOAD DUP1 SWAP2 SUB SWAP1 RETURN JUMPDEST PUSH2 0x68 PUSH2 0x2EA JUMP JUMPDEST DUP2 PUSH1 0x0 PUSH1 0x2 DUP2 LT PUSH2 0x7C JUMPI PUSH2 0x7B PUSH2 0x512 JUMP JUMPDEST JUMPDEST PUSH1 0x40 MUL ADD PUSH1 0x0 PUSH1 0x2 DUP2 LT PUSH2 0x93 JUMPI PUSH2 0x92 PUSH2 0x512 JUMP JUMPDEST JUMPDEST PUSH1 0x20 MUL ADD CALLDATALOAD DUP4 PUSH1 0x0 PUSH1 0x2 DUP2 LT PUSH2 0xAC JUMPI PUSH2 0xAB PUSH2 0x512 JUMP JUMPDEST JUMPDEST PUSH1 0x40 MUL ADD PUSH1 0x0 PUSH1 0x2 DUP2 LT PUSH2 0xC3 JUMPI PUSH2 0xC2 PUSH2 0x512 JUMP JUMPDEST JUMPDEST PUSH1 0x20 MUL ADD CALLDATALOAD PUSH2 0xD2 SWAP2 SWAP1 PUSH2 0x570 JUMP JUMPDEST DUP2 PUSH1 0x0 PUSH1 0x2 DUP2 LT PUSH2 0xE6 JUMPI PUSH2 0xE5 PUSH2 0x512 JUMP JUMPDEST JUMPDEST PUSH1 0x20 MUL ADD MLOAD PUSH1 0x0 PUSH1 0x2 DUP2 LT PUSH2 0xFE JUMPI PUSH2 0xFD PUSH2 0x512 JUMP JUMPDEST JUMPDEST PUSH1 0x20 MUL ADD DUP2 DUP2 MSTORE POP POP DUP2 PUSH1 0x0 PUSH1 0x2 DUP2 LT PUSH2 0x11B JUMPI PUSH2 0x11A PUSH2 0x512 JUMP JUMPDEST JUMPDEST PUSH1 0x40 MUL ADD PUSH1 0x1 PUSH1 0x2 DUP2 LT PUSH2 0x132 JUMPI PUSH2 0x131 PUSH2 0x512 JUMP JUMPDEST JUMPDEST PUSH1 0x20 MUL ADD CALLDATALOAD DUP4 PUSH1 0x0 PUSH1 0x2 DUP2 LT PUSH2 0x14B JUMPI PUSH2 0x14A PUSH2 0x512 JUMP JUMPDEST JUMPDEST PUSH1 0x40 MUL ADD PUSH1 0x1 PUSH1 0x2 DUP2 LT PUSH2 0x162 JUMPI PUSH2 0x161 PUSH2 0x512 JUMP JUMPDEST JUMPDEST PUSH1 0x20 MUL ADD CALLDATALOAD PUSH2 0x171 SWAP2 SWAP1 PUSH2 0x570 JUMP JUMPDEST DUP2 PUSH1 0x0 PUSH1 0x2 DUP2 LT PUSH2 0x185 JUMPI PUSH2 0x184 PUSH2 0x512 JUMP JUMPDEST JUMPDEST PUSH1 0x20 MUL ADD MLOAD PUSH1 0x1 PUSH1 0x2 DUP2 LT PUSH2 0x19D JUMPI PUSH2 0x19C PUSH2 0x512 JUMP JUMPDEST JUMPDEST PUSH1 0x20 MUL ADD DUP2 DUP2 MSTORE POP POP DUP2 PUSH1 0x1 PUSH1 0x2 DUP2 LT PUSH2 0x1BA JUMPI PUSH2 0x1B9 PUSH2 0x512 JUMP JUMPDEST JUMPDEST PUSH1 0x40 MUL ADD PUSH1 0x0 PUSH1 0x2 DUP2 LT PUSH2 0x1D1 JUMPI PUSH2 0x1D0 PUSH2 0x512 JUMP JUMPDEST JUMPDEST PUSH1 0x20 MUL ADD CALLDATALOAD DUP4 PUSH1 0x1 PUSH1 0x2 DUP2 LT PUSH2 0x1EA JUMPI PUSH2 0x1E9 PUSH2 0x512 JUMP JUMPDEST JUMPDEST PUSH1 0x40 MUL ADD PUSH1 0x0 PUSH1 0x2 DUP2 LT PUSH2 0x201 JUMPI PUSH2 0x200 PUSH2 0x512 JUMP JUMPDEST JUMPDEST PUSH1 0x20 MUL ADD CALLDATALOAD PUSH2 0x210 SWAP2 SWAP1 PUSH2 0x570 JUMP JUMPDEST DUP2 PUSH1 0x1 PUSH1 0x2 DUP2 LT PUSH2 0x224 JUMPI PUSH2 0x223 PUSH2 0x512 JUMP JUMPDEST JUMPDEST PUSH1 0x20 MUL ADD MLOAD PUSH1 0x0 PUSH1 0x2 DUP2 LT PUSH2 0x23C JUMPI PUSH2 0x23B PUSH2 0x512 JUMP JUMPDEST JUMPDEST PUSH1 0x20 MUL ADD DUP2 DUP2 MSTORE POP POP DUP2 PUSH1 0x1 PUSH1 0x2 DUP2 LT PUSH2 0x259 JUMPI PUSH2 0x258 PUSH2 0x512 JUMP JUMPDEST JUMPDEST PUSH1 0x40 MUL ADD PUSH1 0x1 PUSH1 0x2 DUP2 LT PUSH2 0x270 JUMPI PUSH2 0x26F PUSH2 0x512 JUMP JUMPDEST JUMPDEST PUSH1 0x20 MUL ADD CALLDATALOAD DUP4 PUSH1 0x1 PUSH1 0x2 DUP2 LT PUSH2 0x289 JUMPI PUSH2 0x288 PUSH2 0x512 JUMP JUMPDEST JUMPDEST PUSH1 0x40 MUL ADD PUSH1 0x1 PUSH1 0x2 DUP2 LT PUSH2 0x2A0 JUMPI PUSH2 0x29F PUSH2 0x512 JUMP JUMPDEST JUMPDEST PUSH1 0x20 MUL ADD CALLDATALOAD PUSH2 0x2AF SWAP2 SWAP1 PUSH2 0x570 JUMP JUMPDEST DUP2 PUSH1 0x1 PUSH1 0x2 DUP2 LT PUSH2 0x2C3 JUMPI PUSH2 0x2C2 PUSH2 0x512 JUMP JUMPDEST JUMPDEST PUSH1 0x20 MUL ADD MLOAD PUSH1 0x1 PUSH1 0x2 DUP2 LT PUSH2 0x2DB JUMPI PUSH2 0x2DA PUSH2 0x512 JUMP JUMPDEST JUMPDEST PUSH1 0x20 MUL ADD DUP2 DUP2 MSTORE POP POP SWAP3 SWAP2 POP POP JUMP JUMPDEST PUSH1 0x40 MLOAD DUP1 PUSH1 0x40 ADD PUSH1 0x40 MSTORE DUP1 PUSH1 0x2 SWAP1 JUMPDEST PUSH2 0x301 PUSH2 0x317 JUMP JUMPDEST DUP2 MSTORE PUSH1 0x20 ADD SWAP1 PUSH1 0x1 SWAP1 SUB SWAP1 DUP2 PUSH2 0x2F9 JUMPI SWAP1 POP POP SWAP1 JUMP JUMPDEST PUSH1 0x40 MLOAD DUP1 PUSH1 0x40 ADD PUSH1 0x40 MSTORE DUP1 PUSH1 0x2 SWAP1 PUSH1 0x20 DUP3 MUL DUP1 CALLDATASIZE DUP4 CALLDATACOPY DUP1 DUP3 ADD SWAP2 POP POP SWAP1 POP POP SWAP1 JUMP JUMPDEST PUSH1 0x0 DUP1 REVERT JUMPDEST PUSH1 0x0 DUP1 REVERT JUMPDEST PUSH1 0x0 DUP2 SWAP1 POP DUP3 PUSH1 0x40 PUSH1 0x2 MUL DUP3 ADD GT ISZERO PUSH2 0x35F JUMPI PUSH2 0x35E PUSH2 0x33E JUMP JUMPDEST JUMPDEST SWAP3 SWAP2 POP POP JUMP JUMPDEST PUSH1 0x0 DUP1 PUSH2 0x100 DUP4 DUP6 SUB SLT ISZERO PUSH2 0x37D JUMPI PUSH2 0x37C PUSH2 0x339 JUMP JUMPDEST JUMPDEST PUSH1 0x0 PUSH2 0x38B DUP6 DUP3 DUP7 ADD PUSH2 0x343 JUMP JUMPDEST SWAP3 POP POP PUSH1 0x80 PUSH2 0x39C DUP6 DUP3 DUP7 ADD PUSH2 0x343 JUMP JUMPDEST SWAP2 POP POP SWAP3 POP SWAP3 SWAP1 POP JUMP JUMPDEST PUSH1 0x0 PUSH1 0x2 SWAP1 POP SWAP2 SWAP1 POP JUMP JUMPDEST PUSH1 0x0 DUP2 SWAP1 POP SWAP3 SWAP2 POP POP JUMP JUMPDEST PUSH1 0x0 DUP2 SWAP1 POP SWAP2 SWAP1 POP JUMP JUMPDEST PUSH1 0x0 PUSH1 0x2 SWAP1 POP SWAP2 SWAP1 POP JUMP JUMPDEST PUSH1 0x0 DUP2 SWAP1 POP SWAP3 SWAP2 POP POP JUMP JUMPDEST PUSH1 0x0 DUP2 SWAP1 POP SWAP2 SWAP1 POP JUMP JUMPDEST PUSH1 0x0 DUP2 SWAP1 POP SWAP2 SWAP1 POP JUMP JUMPDEST PUSH2 0x3F9 DUP2 PUSH2 0x3E6 JUMP JUMPDEST DUP3 MSTORE POP POP JUMP JUMPDEST PUSH1 0x0 PUSH2 0x40B DUP4 DUP4 PUSH2 0x3F0 JUMP JUMPDEST PUSH1 0x20 DUP4 ADD SWAP1 POP SWAP3 SWAP2 POP POP JUMP JUMPDEST PUSH1 0x0 PUSH1 0x20 DUP3 ADD SWAP1 POP SWAP2 SWAP1 POP JUMP JUMPDEST PUSH2 0x42D DUP2 PUSH2 0x3C6 JUMP JUMPDEST PUSH2 0x437 DUP2 DUP5 PUSH2 0x3D1 JUMP JUMPDEST SWAP3 POP PUSH2 0x442 DUP3 PUSH2 0x3DC JUMP JUMPDEST DUP1 PUSH1 0x0 JUMPDEST DUP4 DUP2 LT ISZERO PUSH2 0x473 JUMPI DUP2 MLOAD PUSH2 0x45A DUP8 DUP3 PUSH2 0x3FF JUMP JUMPDEST SWAP7 POP PUSH2 0x465 DUP4 PUSH2 0x417 JUMP JUMPDEST SWAP3 POP POP PUSH1 0x1 DUP2 ADD SWAP1 POP PUSH2 0x446 JUMP JUMPDEST POP POP POP POP POP POP JUMP JUMPDEST PUSH1 0x0 PUSH2 0x487 DUP4 DUP4 PUSH2 0x424 JUMP JUMPDEST PUSH1 0x40 DUP4 ADD SWAP1 POP SWAP3 SWAP2 POP POP JUMP JUMPDEST PUSH1 0x0 PUSH1 0x20 DUP3 ADD SWAP1 POP SWAP2 SWAP1 POP JUMP JUMPDEST PUSH2 0x4A9 DUP2 PUSH2 0x3A6 JUMP JUMPDEST PUSH2 0x4B3 DUP2 DUP5 PUSH2 0x3B1 JUMP JUMPDEST SWAP3 POP PUSH2 0x4BE DUP3 PUSH2 0x3BC JUMP JUMPDEST DUP1 PUSH1 0x0 JUMPDEST DUP4 DUP2 LT ISZERO PUSH2 0x4EF JUMPI DUP2 MLOAD PUSH2 0x4D6 DUP8 DUP3 PUSH2 0x47B JUMP JUMPDEST SWAP7 POP PUSH2 0x4E1 DUP4 PUSH2 0x493 JUMP JUMPDEST SWAP3 POP POP PUSH1 0x1 DUP2 ADD SWAP1 POP PUSH2 0x4C2 JUMP JUMPDEST POP POP POP POP POP POP JUMP JUMPDEST PUSH1 0x0 PUSH1 0x80 DUP3 ADD SWAP1 POP PUSH2 0x50C PUSH1 0x0 DUP4 ADD DUP5 PUSH2 0x4A0 JUMP JUMPDEST SWAP3 SWAP2 POP POP JUMP JUMPDEST PUSH32 0x4E487B7100000000000000000000000000000000000000000000000000000000 PUSH1 0x0 MSTORE PUSH1 0x32 PUSH1 0x4 MSTORE PUSH1 0x24 PUSH1 0x0 REVERT JUMPDEST PUSH32 0x4E487B7100000000000000000000000000000000000000000000000000000000 PUSH1 0x0 MSTORE PUSH1 0x11 PUSH1 0x4 MSTORE PUSH1 0x24 PUSH1 0x0 REVERT JUMPDEST PUSH1 0x0 PUSH2 0x57B DUP3 PUSH2 0x3E6 JUMP JUMPDEST SWAP2 POP PUSH2 0x586 DUP4 PUSH2 0x3E6 JUMP JUMPDEST SWAP3 POP DUP3 DUP3 ADD SWAP1 POP DUP1 DUP3 GT ISZERO PUSH2 0x59E JUMPI PUSH2 0x59D PUSH2 0x541 JUMP JUMPDEST JUMPDEST SWAP3 SWAP2 POP POP JUMP INVALID LOG2 PUSH5 0x6970667358 0x22 SLT KECCAK256 SIGNEXTEND RETURNDATACOPY 0xC SLT SWAP12 SWAP16 COINBASE PUSH7 0x61CC506ED1B52B MUL PUSH14 0xBC818D3F2C7242DC470ED060CCA0 DUP4 PUSH5 0x736F6C6343 STOP ADDMOD SGT STOP CALLER "
		},
		"gasEstimates": {
			"creation": {
				"codeDepositCost": "299600",
				"executionCost": "337",
				"totalCost": "299937"
			},
			"external": {
				"solution(uint256[2][2],uint256[2][2])": "infinite"
			}
		},
		"methodIdentifiers": {
			"solution(uint256[2][2],uint256[2][2])": "5f3fa56b"
		}
	},
	"abi": [
		{
			"inputs": [
				{
					"internalType": "uint256[2][2]",
					"name": "x",
					"type": "uint256[2][2]"
				},
				{
					"internalType": "uint256[2][2]",
					"name": "y",
					"type": "uint256[2][2]"
				}
			],
			"name": "solution",
			"outputs": [
				{
					"internalType": "uint256[2][2]",
					"name": "fa",
					"type": "uint256[2][2]"
				}
			],
			"stateMutability": "pure",
			"type": "function"
		}
	]
}